:100000000C9441010C9472010C9472010C947201D5
:100010000C9472010C9472010C9472010C94720194
:100020000C9472010C9472010C9472010C94720184
:100030000C9472010C9472010C9472010C94720174
:100040000C9472010C9452080C9472010C9472017D
:100050000C9472010C9472010C9472010C947E0742
:100060000C9472010C9472010C9472010C94720144
:100070000C9472010C9472010C9472010C94720134
:100080000C9424080C9472010C9472010C9472016B
:100090000C9448070C941E070C9472010C94720186
:1000A0000C9472010C9472010C94F6070C9472017A
:1000B0000C9472010C9472010C9472010C94C80798
:1000C0000C9472010C9472010C9472010C947201E4
:1000D0000C9472010C9472010C9472010C947201D4
:1000E0000C9472010C9463020C9484030C947102BE
:1000F0000C9477030C94C5080C949C030C9408048E
:100100000C94A5030C9448040C9480030C94A00355
:100110000C946F030C947A030C9473030C94C50530
:100120000C94F6020C946B030C9413020C9465036C
:100130000C9440020C9498030C944F020C94D70337
:100140000C94C6050C9492030C948A030C94180723
:100150000C94AA030C94A6030C94A9020C948E038D
:1001600000002100240027002A002D003000330069
:1001700001010000040107010A010000220025001E
:1001800028002B002E003100340002010000050180
:1001900008010B0100000A0B02090C0D0E080703F1
:1001A000040100000000000000000000000000004A
:1001B000000000000000000000000000000000003F
:1001C00012111000000000000000000000000000FC
:1001D00000000000000000000000000020002300DC
:1001E000260029002C002F0032000001000003012E
:1001F00006010901050505050705080808080202AA
:1002000002020A0A080804040404010101010101B0
:1002100001010303030303030303040707070C0C93
:100220000C0C0C0C0C0C020202020606060606065A
:1002300006060B0B0B0B0B0B0B0B010210202008FF
:100240000810204010204080020102010804020131
:1002500001020408102040808040201008040201A0
:1002600080040201804020100804020108040201F9
:100270000102040810204080010204081020408080
:10028000C50811241FBECFEFD1E2DEBFCDBF00E015
:100290000CBF12E0A0E0B2E0ECEDFDE100E00BBF2E
:1002A00002C007900D92A836B107D9F724E0A8E65E
:1002B000B2E001C01D92A533B207E1F711E0C1E43D
:1002C000D1E000E006C021970109802FFE010E94C5
:1002D000E40EC034D10780E00807A9F70E9499090D
:1002E0000C94EC0E0C940000CF92DF92EF92FF92F0
:1002F000DC01A03282E0B807D4F5A53BB10514F0CB
:10030000A4EBB0E04091330428E830E0241B31092D
:1003100047FD3395220F331F220F331F6901330F1F
:10032000EE08FF084091340428E532E0241B31092F
:1003300047FD3395220F331F220F331F032E000C6E
:10034000440B550B2C193D094E095F09B7FF02C03C
:10035000B0E0A0E00E946E0D24EB30E040E050E001
:100360000E94440DC20ED31EE41EF51ED601E0917C
:100370003204E03380F52091330488E890E0821B5A
:10038000910927FD9395880F991F880F991FA8172A
:10039000B90784F02091340488E592E0821B91092A
:1003A00027FD9395880F991F880F991FA817B907E4
:1003B0000CF4CD010297880F991F4FB7F8942E2F98
:1003C00030E0F901EE0FFF1FE20FF31FE65EFC4F76
:1003D000928381834FBFFF90EF90DF90CF9008957D
:1003E00096E0899FD0011124AD53BC4F90967C9329
:1003F0006E935F9791E091969C939197E091300472
:10040000F091310490912F04992339F0309751F0F5
:10041000811108C08091DF031994309719F05C9620
:100420008C91FACF0895AF92BF92CF92DF92EF9264
:10043000FF920F931F93CF93DF936C017B018B018E
:10044000040F151FEB015E01AE18BF08C017D107DE
:1004500059F06991D601ED91FC910190F081E02D68
:10046000C6011995892B79F7C501DF91CF911F91AD
:100470000F91FF90EF90DF90CF90BF90AF900895D5
:10048000FC01538D448D252F30E0842F90E0821B9A
:10049000930B541710F0CF96089501970895FC011F
:1004A000918D828D981761F0A28DAE0FBF2FB11D77
:1004B0005D968C91928D9F5F9F73928F90E00895CF
:1004C0008FEF9FEF0895FC01918D828D981731F089
:1004D000828DE80FF11D858D90E008958FEF9FEFDD
:1004E0000895FC01918D228D892F90E0805C9F4FB3
:1004F000821B91098F73992708958DE792E00E94DE
:10050000710221E0892B09F420E0822F0895FC017B
:10051000A48DA80FB92FB11DA35ABF4F2C91848D64
:1005200090E001968F739927848FA689B7892C93C1
:10053000A089B1898C91837080648C93938D848D14
:10054000981306C00288F389E02D80818F7D808317
:100550000895EF92FF920F931F93CF93DF93EC01D7
:1005600081E0888F9B8D8C8D98131AC0E889F9895A
:10057000808185FF15C09FB7F894EE89FF8960835D
:10058000E889F98980818370806480839FBF81E0DE
:1005900090E0DF91CF911F910F91FF90EF90089520
:1005A000F62E0B8D10E00F5F1F4F0F731127E02EFB
:1005B0008C8D8E110CC00FB607FCFACFE889F98933
:1005C000808185FFF5CFCE010E948702F1CFEB8DB0
:1005D000EC0FFD2FF11DE35AFF4FF0829FB7F89407
:1005E0000B8FEA89FB8980818062CFCFCF93DF9325
:1005F000EC01888D8823B9F0AA89BB89E889F9893B
:100600008C9185FD03C0808186FD0DC00FB607FC6F
:10061000F7CF8C9185FFF2CF808185FFEDCFCE01A2
:100620000E948702E9CFDF91CF91089580E090E0AA
:10063000892B49F080E090E0892B29F00E9400008E
:1006400081110E94000080E090E0892B29F00E9437
:100650007D0281110E94000080E090E0892B49F02A
:1006600080E090E0892B29F00E94000081110E9417
:10067000000080E090E0892B49F080E090E0892B39
:1006800029F00E94000081110C940000089581500F
:10069000823108F05AC0E82FF0E08827ED5AFC4F6D
:1006A0008F4F0C94E40E7303770365036B036F03A2
:1006B000A5037A03800384038A038E0392039803BD
:1006C0009C03A503A003A603AA03809180008F7753
:1006D000809380000895809180008F7DF9CF809174
:1006E0008000877FF5CF84B58F7784BD089584B56A
:1006F0008F7DFBCF8091B0008F778093B0000895FD
:100700008091B0008F7DF9CF809190008F7780939A
:1007100090000895809190008F7DF9CF8091900096
:10072000877FF5CF8091A0008F778093A0000895F8
:100730008091A0008F7DF9CF8091A000877FF5CFB9
:10074000809120018F77809320010895809120016E
:100750008F7DF9CF80912001877FF5CFCF93DF93F5
:10076000282F30E0F901EC56FE4F8491F901E65C48
:10077000FD4FD491F901EC50FE4FC491CC23A1F070
:1007800081110E944703EC2FF0E0EE0FFF1FE652AD
:10079000FE4FA591B491EC91ED2381E090E009F436
:1007A00080E0DF91CF91089580E090E0FACF862F2E
:1007B0000C94AE031F93CF93DF93282F30E0F90101
:1007C000EC56FE4F8491F901E65CFD4FD491F9019E
:1007D000EC50FE4FC491CC23A9F0162F81110E943A
:1007E0004703EC2FF0E0EE0FFF1FE658FE4FA591F8
:1007F000B4918FB7F894EC91111108C0D095DE2315
:10080000DC938FBFDF91CF911F910895DE2BF8CF3E
:10081000862F642F0C94DA03CF93DF9390E0FC01D2
:10082000E65CFD4F24918C509E4FFC0184918823FF
:10083000C9F090E0880F991FFC01E05AFE4FA59186
:10084000B491FC01E658FE4FC591D49161110DC0E1
:100850009FB7F8948C91209582238C9388812823CC
:1008600028839FBFDF91CF910895623051F49FB7E5
:10087000F8943C91822F809583238C93E8812E2BD2
:10088000EFCF8FB7F894EC912E2B2C938FBFEACF3C
:10089000862F642F0C940C043FB7F894809171025A
:1008A00090917202A0917302B091740226B5A89B38
:1008B00005C02F3F19F00196A11DB11D3FBFBA2FF2
:1008C000A92F982F8827BC01CD01620F711D811DB2
:1008D000911D42E0660F771F881F991F4A95D1F737
:1008E00008958F929F92AF92BF92CF92DF92EF9234
:1008F000FF924B015C010E944C046B017C010E9441
:100900004C046C197D098E099F09683E734081056E
:100910009105A8F321E0821A9108A108B10888EE98
:10092000C80E83E0D81EE11CF11C81149104A104BF
:10093000B10429F7FF90EF90DF90CF90BF90AF9078
:100940009F908F9008952FB7F89460916D027091E9
:100950006E0280916F02909170022FBF08950F93E5
:100960001F93CF93DF93C82FD62F86E0C89FF00147
:100970001124ED53FC4F11A2878D90A18130910578
:10098000F1F058F082309105F1F1039709F440C07D
:10099000DF91CF911F910F9108956623C9F361E014
:1009A00070E08C2F0E94F0010E94A30460931B044E
:1009B00070931C0480931D0490931E04E9CF0E9441
:1009C000A30400911B0410911C0420911D0430917C
:1009D0001E04AB01BC01401B510B620B730B8091D9
:1009E0002D0490912E04B0E0A0E084179507A6078F
:1009F000B70748F462E070E08C2FDF91CF911F9130
:100A00000F910C94F00163E070E0D111C1CFF4CFED
:100A100070E060E0F1CFAF92BF92CF92DF92EF92A1
:100A2000FF920F931F93CF93DF936B017A01EC0139
:100A3000C859DD4F28813CE0389F8001399F100D57
:100A40001124A090AA03B12C27FF1FC0FB01118223
:100A5000108288818F5F888388819801280F311DDB
:100A600087FD3A95F6012A153B051CF488818C30E8
:100A7000C4F180819181049680349C4908F473C04C
:100A8000F60180819181049670C088819801280FB9
:100A9000311D87FD3A952A153B05DCF68881A801B2
:100AA000480F511D87FD5A95FA01EE0FFF1FE40F05
:100AB000F51FE65EFC4F808186FFCBCF8881F80171
:100AC000E80FF11D87FDFA95CF01EE0FFF1FE80F2C
:100AD000F91FE65EFC4F808160E08F730E94DA03AD
:100AE000B8CF808191812881A801420F511D27FD37
:100AF0005A959A01FA01EE0FFF1FE20FF31FE65E0F
:100B0000FC4F21813281820F931FF70191838083F3
:100B100088819801280F311D87FD3A95F901EE0F64
:100B2000FF1FE20FF31FE65EFC4F808186FF22C0AD
:100B30008881080F111D87FD1A95F801EE0FFF1F20
:100B4000E00FF11FE65EFC4F808161E08F73DF9163
:100B5000CF911F910F91FF90EF90DF90CF90BF90BA
:100B6000AF900C94DA0380E49CE9F70191838083D1
:100B70008FEF8883DF91CF911F910F91FF90EF90BE
:100B8000DF90CF90BF90AF900895089590E080E0FF
:100B90000895FC0101900020E9F73197AF01481B4F
:100BA000590BBC018BEA93E00C941302CF93DF93B3
:100BB000EC0160E08E810E94DA0361E08E810E9488
:100BC000DA0360E08E810E94DA038BE891E00197FE
:100BD000F1F7DF91CF910895CF92DF92EF92FF92DC
:100BE0000F931F93CF93DF936C017C0187E0E80E96
:100BF000F11CD0E0C0E0062F10E0B8010C2E02C0BE
:100C0000759567950A94E2F76170F70181917F010C
:100C10000E94DA032196C430D10579F7C601DF912D
:100C2000CF911F910F91FF90EF90DF90CF900C9498
:100C3000D605CF92DF92EF92FF920F931F93CF933F
:100C4000DF93EC01F62E642F8C810E94DA038D81F4
:100C50008F3F19F060E00E94DA030F2D10E08F85BE
:100C600084FF25C06E0187E0C80ED11CF12CE12C59
:100C7000B8010E2C02C0759567950A94E2F7617071
:100C8000F60181916F010E94DA03FFEFEF1AFF0A6C
:100C900088E0E816F10461F7CE01DF91CF911F9152
:100CA0000F91FF90EF90DF90CF900C94D605B80194
:100CB00084E0759567958A95E1F7CE010E94EC0571
:100CC0006F2DCE01DF91CF911F910F91FF90EF908B
:100CD000DF90CF900C94EC0540E0682F8BEA93E016
:100CE0000C941906CF93DF93823029F49091BA03C4
:100CF00098609093BA038093BE031092BF0380E480
:100D00008093C00380E18093C10380E58093C20398
:100D100061E08091AF030E940C048091B0038F3F8B
:100D200019F061E00E940C0461E08091B1030E941F
:100D30000C04CBEAD3E09E012B5A33408091BA03D6
:100D400084FD0BC084E090E021962817390744F415
:100D500061E08E810E940C04EECF88E090E0F4CF39
:100D60008BE39DE00197F1F760E08091AF030E9473
:100D7000DA0360E08091B1030E94DA038091B0034E
:100D80008F3F19F060E00E94DA038091BA0384FD7E
:100D900039C063E08BEA93E00E94EC05CBE4D6E433
:100DA000CE010197F1F763E08BEA93E00E94EC0536
:100DB0002197F1F763E08BEA93E00E94EC0583E56D
:100DC00092E00197F1F762E08BEA93E00E94EC0574
:100DD0008091BA0380620E946C0684E08093BB031A
:100DE0008CE00E946C0681E00E946C068BE39FE120
:100DF0000197F1F782E08093BC0386E0DF91CF9109
:100E00000C946C0680620E946C068BE496E4019759
:100E1000F1F78091BA0380620E946C0683E592E04C
:100E20000197F1F78091BA0380620E946C06D0CFDF
:100E300041E00E94190681E090E008951F920F9210
:100E40000FB60F9211240BB60F922F933F934F932F
:100E50005F936F937F938F939F93AF93BF93EF9322
:100E6000FF938DE792E00E948702FF91EF91BF917F
:100E7000AF919F918F917F916F915F914F913F9132
:100E80002F910F900BBE0F900FBE0F901F901895D3
:100E90001F920F920FB60F9211240BB60F922F9341
:100EA0008F939F93EF93FF93E0918D02F0918E02C9
:100EB0008081E0919302F091940282FD1DC09081A7
:100EC000809196028F5F8F7320919702821741F075
:100ED000E0919602F0E0E358FD4F958F80939602E3
:100EE000FF91EF919F918F912F910F900BBE0F90DB
:100EF0000FBE0F901F9018958081F2CF1F920F9216
:100F00000FB60F9211242F933F938F939F93AF931C
:100F1000BF9380916D0290916E02A0916F02B0918B
:100F2000700230916C0223E0230F2D3758F50196A3
:100F3000A11DB11D20936C0280936D0290936E02EF
:100F4000A0936F02B093700280917102909172022F
:100F5000A0917302B09174020196A11DB11D8093FE
:100F6000710290937202A0937302B0937402BF91C6
:100F7000AF919F918F913F912F910F900FBE0F9046
:100F80001F90189526E8230F0296A11DB11DD2CF00
:100F90001F920F920FB60F9211240BB60F922F9340
:100FA0003F934F935F936F937F938F939F93AF93F1
:100FB000BF93EF93FF9348E251E064E271E090E069
:100FC00080E00E940B05FF91EF91BF91AF919F913F
:100FD0008F917F916F915F914F913F912F910F90E2
:100FE0000BBE0F900FBE0F901F9018951F920F927F
:100FF0000FB60F9211240BB60F922F933F934F937E
:101000005F936F937F938F939F93AF93BF93EF9370
:10101000FF9348EA50E064EA70E083E090E00E94C9
:101020000B05FF91EF91BF91AF919F918F917F91B0
:101030006F915F914F913F912F910F900BBE0F9049
:101040000FBE0F901F9018951F920F920FB60F9220
:1010500011240BB60F922F933F934F935F936F938F
:101060007F938F939F93AF93BF93EF93FF9348E941
:1010700050E064E970E082E090E00E940B05FF918F
:10108000EF91BF91AF919F918F917F916F915F9100
:101090004F913F912F910F900BBE0F900FBE0F906D
:1010A0001F9018951F920F920FB60F9211240BB636
:1010B0000F922F933F934F935F936F937F938F93F1
:1010C0009F93AF93BF93EF93FF9348E850E064E89A
:1010D00070E081E090E00E940B05FF91EF91BF91DD
:1010E000AF919F918F917F916F915F914F913F91C0
:1010F0002F910F900BBE0F900FBE0F901F90189561
:10110000CF92DF92EF92FF920F931F93E82FF92F68
:1011100005C0015011092109310961F1908196231F
:101120009417B9F305C0015011092109310911F1D2
:10113000908196239413F7CFC12CD12CE12CF12C64
:101140000AC08FEFC81AD80AE80AF80A0C151D055C
:101150002E053F0579F080818623841791F36C2D4D
:101160007D2D8E2D9F2D1F910F91FF90EF90DF9081
:10117000CF90089560E070E080E090E01F910F91C3
:10118000FF90EF90DF90CF90089510928002109220
:101190007F0288EE93E0A0E0B0E08093810290931C
:1011A0008202A0938302B09384028DE192E0909337
:1011B0007E0280937D028DEC90E090938A02809372
:1011C00089028CEC90E090938C0280938B0288ECE7
:1011D00090E090938E0280938D0289EC90E0909342
:1011E000900280938F028AEC90E090939202809319
:1011F00091028EEC90E0909394028093930210926F
:101200009602109297021092980210929902809181
:10121000AA03803308F089C091E0980F9093AA0345
:101220008093320490E0FC01EE0FFF1FE80FF91FDE
:10123000E65EFC4F88EB9BE0928381831092C503AE
:101240001092C9031092C8031092CA038BE392E074
:101250009093C4038093C303EFEDF3E010821482F4
:1012600013821582369684E0EB31F807B9F783E0F4
:1012700092E0909326048093250480E092E090937E
:1012800028048093270484E08093290483E08093DA
:101290002A0487E092E090932404809323048AE058
:1012A00090E090932C0480932B0484EF91E0909332
:1012B0002E0480932D041092310410923004109269
:1012C0001F04109220041092210410922204109204
:1012D0002F041092AE031092AD038FE292E0909330
:1012E000AC038093AB038DE08093AF038FEF8093CB
:1012F000B0038CE08093B10387E28093B20385E270
:101300008093B30383E28093B40381E28093B503B7
:101310001092B6031092B7031092B8031092B9035B
:101320001092BA0381E00C9472068FEF809332041E
:1013300085CF789484B5826084BD84B5816084BD96
:1013400085B5826085BD85B5816085BD80916E0063
:10135000816080936E001092810080918100826094
:1013600080938100809181008160809381008091D1
:1013700080008160809380008091B10084608093C0
:10138000B1008091B00081608093B00080919100A5
:1013900082608093910080919100816080939100A0
:1013A000809190008160809390008091A100826084
:1013B0008093A1008091A10081608093A100809121
:1013C000A00081608093A0008091210182608093C1
:1013D0002101809121018160809321018091200170
:1013E00081608093200180917A00846080937A00EC
:1013F00080917A00826080937A0080917A00816087
:1014000080937A0080917A00806880937A001092AD
:10141000C100E0918D02F0918E0282E08083E09124
:101420008902F0918A021082E0918B02F0918C0285
:101430008FEC808310929502E0919102F0919202DC
:1014400086E08083E0918F02F0919002808180613C
:101450008083E0918F02F091900280818860808388
:10146000E0918F02F0919002808180688083E0910A
:101470008F02F091900280818F7D808361E084E013
:101480000E940C0461E089E00E940C0461E085E0A8
:101490000E940C0480913204803308F052C061E055
:1014A0008AE00E940C0480913204282F30E0F90178
:1014B000EE0FFF1FE20FF31FE65EFC4F9081907C62
:1014C0009A60908310923304109234042CE0622FBF
:1014D0000E94D80E829FB001112430E020E0AB01C1
:1014E000420F531FFA01EE0FFF1FE40FF51FE65ED8
:1014F000FC4F908196FD17C02F5F3F4F2C30310578
:1015000071F7813009F0EFC01092800082E0809383
:1015100081001092850010928400B19A80916F0032
:10152000826080936F00E09132048E2F90E0FC0186
:10153000EE0FFF1FE80FF91FE65EFC4F808180640D
:10154000808382E00E94720677247394812C912C10
:101550005401839422242A94322C76E0672E81E46D
:1015600092E00E94C905E091BE03E23008F0E7C0B6
:10157000E150F0E0E555FC4F848980680E946C06DC
:1015800082E592E00E94C90568EB7BE080E090E094
:101590000E947104E1E08091BE038111E0E0E195D9
:1015A000F0E0E555FC4F848980680E946C0681E07C
:1015B0000E946C068BE39FE10197F1F787E592E0CB
:1015C0000E94C90568EB7BE080E090E00E94710416
:1015D000E1E08091BE038111E0E0E195F0E0E555A6
:1015E000FC4F848980680E946C0661E08BE00E9459
:1015F0000C0460E08BE00E94DA0383E090E0019746
:10160000F1F761E08BE00E94DA0383E290E001975A
:10161000F1F760E08BE00E94DA0360E08BE00E946B
:101620000C04E5E4F2E06491EFEFF1E0E491F0E026
:10163000EE0FFF1FE652FE4F8591949100E412E4F5
:101640002FE030E0462F0E9480086115710581056A
:10165000910529F06F5F7F4F8F4F9F4F9F700E94C2
:10166000DF0D2EEE35E24DE85CE30E94430E0E9452
:10167000A70D663971050CF056C180917B029091DF
:101680007C0206970CF070C170922F040E94A30494
:1016900000911F0410912004209121043091220414
:1016A000AB01BC01401B510B620B730B80912B04EF
:1016B00090912C04B0E0A0E084179507A607B70727
:1016C00008F03AC1C0E080912904C817D0F5E09134
:1016D0002504F0912604EC0FF11D62E080810E9448
:1016E0000C04CF5FF0CF823061F4109290008093B1
:1016F0009100109295001092940088BB8093710025
:1017000012CF833069F41092A00082E08093A10090
:101710001092A5001092A40089BB8093720003CFA1
:10172000811101CF1092200182E08093210110925B
:101730002501109224018ABB80937300F4CEE1E06E
:1017400018CF512C80912A04581608F05FC0052D3F
:1017500010E0E0912704F0912804E00FF11F61E010
:1017600080810E940C04E0912704F0912804E00F8E
:10177000F11F60E080810E94DA03D501C401052CCD
:1017800004C0880F991FAA1FBB1F0A94D2F76C01CF
:101790007C01E094F094412C809129044816F8F4DF
:1017A000C42DD0E0E0912504F0912604EC0FFD1F3C
:1017B00080810E94AE032496CC0FDD1FCD53DC4FF9
:1017C000892B41F4888199818C299D29998388836B
:1017D0004394E2CF888199818E219F21F7CFE091B8
:1017E0002704F0912804E00FF11F61E080810E943E
:1017F000DA038091270490912804080F191F60E0F4
:10180000F80180810E940C0453949CCFC3ECD3E078
:101810008FEF93E08E01F801278D30A1232B21F467
:10182000148E368E258E11A20A5F1F4F80179107E6
:1018300091F7F12C80912904F81608F052C0E12CA0
:101840008F2D90E0880F991F9C0125533C4F690113
:1018500080912A04E81608F042C0F6016081718187
:101860000E2C02C0769567950A94E2F7F89EA001C7
:1018700011244E0D511DE3ECF3E080E0258D368DF3
:101880004217530709F4FEC08F5F36968A30B1F7CE
:1018900060FF23C0E3ECF3E090E080E0248D2111B1
:1018A00017C0E0912304F0912404E40FF51F208178
:1018B000689EF001699EF00D1124ED53FC4F248FBA
:1018C000568F458F10A2178E61E00E94AF0405C0AD
:1018D000019636968A30910509F7E394B9CFF394CF
:1018E000A9CFF12C89A18111F82E2696C017D10716
:1018F000C9F70E94A30460931F047093200480938F
:10190000210490932204FF20B9F08091E4038823FE
:1019100099F08091E2039091E303019769F460915B
:10192000DF0361110CC060E971E080E090E00E948B
:1019300071040E94160313CE10922F04F4CFC091AD
:101940007B02D0917C02FE01ED5EFD4F808186130B
:1019500070927A028DE792E00E94A9022196D093BC
:101960007C02C0937B02DFCF80917A028823F1F161
:10197000C0917702D0917802C230D1055CF561E068
:1019800089E00E94DA0310927C0210927B0210928E
:101990007A022196D0937802C09377026AE08DE7AD
:1019A00092E00E94A90242E050E065E672E08DE715
:1019B00092E00E94130260ED77E080E090E00E94E8
:1019C000710460E089E00E94DA0360E084E00E9434
:1019D000DA03A9CF0E94A30424E630E040E050E0FF
:1019E0000E94760D622F617085E0F1CF80917902BF
:1019F000811143C01092760210927502C091750257
:101A0000D0917602CA35D1057CF4CE010E947401D2
:101A100062E370E080E090E00E9471042196D09330
:101A20007602C0937502EACF68EE73E080E090E042
:101A30000E9471048AE590E090937602809375028B
:101A4000C0917502D0917602D7FD0FC0CE010E94E1
:101A5000740162E370E080E090E00E9471042197DD
:101A6000D0937602C0937502EBCF68EE73E080E00E
:101A700090E00E94710470927902109278021092A4
:101A8000770251CF617021CF052E97FB1EF4009491
:101A90000E945B0D57FD07D00E94760D07FC03D016
:101AA0004EF40C945B0D50954095309521953F4F29
:101AB0004F4F5F4F089590958095709561957F4F3A
:101AC0008F4F9F4F08950E94980DA59F900DB49F32
:101AD000900DA49F800D911D11240895B7FF0C94C3
:101AE000630D0E94630D821B930B0895A1E21A2ED1
:101AF000AA1BBB1BFD010DC0AA1FBB1FEE1FFF1FB2
:101B0000A217B307E407F50720F0A21BB30BE40B01
:101B1000F50B661F771F881F991F1A9469F7609548
:101B20007095809590959B01AC01BD01CF01089502
:101B3000A29FB001B39FC001A39F700D811D11240E
:101B4000911DB29F700D811D1124911D08950E9459
:101B5000AE0D6894B1110C943D0E08950E94220EB2
:101B600088F09F5798F0B92F9927B751B0F0E1F05E
:101B7000660F771F881F991F1AF0BA95C9F714C00E
:101B8000B13091F00E943C0EB1E008950C943C0EEF
:101B9000672F782F8827B85F39F0B93FCCF3869547
:101BA00077956795B395D9F73EF4909580957095A4
:101BB00061957F4F8F4F9F4F0895E89409C097FB21
:101BC0003EF490958095709561957F4F8F4F9F4F14
:101BD0009923A9F0F92F96E9BB279395F695879558
:101BE00077956795B795F111F8CFFAF4BB0F11F41B
:101BF00060FF1BC06F5F7F4F8F4F9F4F16C08823C2
:101C000011F096E911C0772321F09EE8872F762FF7
:101C100005C0662371F096E8862F70E060E02AF038
:101C20009A95660F771F881FDAF7880F9695879524
:101C300097F9089557FD9058440F551F59F05F3F8D
:101C400071F04795880F97FB991F61F09F3F79F0DE
:101C500087950895121613061406551FF2CF469560
:101C6000F1DF08C0161617061806991FF1CF8695E2
:101C70007105610508940895E894BB2766277727C6
:101C8000CB0197F908950E94560E0C94C70E0E943E
:101C9000B90E38F00E94C00E20F0952311F00C947C
:101CA000B00E0C94B60E11240C943D0E0E941A0E28
:101CB00070F3959FC1F3950F50E0551F629FF0019F
:101CC000729FBB27F00DB11D639FAA27F00DB11DB8
:101CD000AA1F649F6627B00DA11D661F829F222741
:101CE000B00DA11D621F739FB00DA11D621F839FC8
:101CF000A00D611D221F749F3327A00D611D231F9E
:101D0000849F600D211D822F762F6A2F11249F57EB
:101D100050409AF0F1F088234AF0EE0FFF1FBB1FEE
:101D2000661F771F881F91505040A9F79E3F5105AD
:101D300080F00C94B00E0C943D0E5F3FE4F3983E9F
:101D4000D4F3869577956795B795F795E7959F5F57
:101D5000C1F7FE2B880F911D9695879597F90895E9
:101D600097F99F6780E870E060E008959FEF80EC4E
:101D7000089500240A9416161706180609060895F1
:101D800000240A9412161306140605060895092E57
:101D90000394000C11F4882352F0BB0F40F4BF2BC6
:101DA00011F460FF04C06F5F7F4F8F4F9F4F089506
:101DB000991B79E004C0991F961708F0961B881F9D
:101DC0007A95C9F780950895EE0FFF1F881F8BBF86
:0C1DD0000790F691E02D1994F894FFCFD5
:101DDC0031333517191B1D31323334353637383919
:101DEC002A302332303231313100000000A9021385
:101DFC00024002F60271024F02630200000000185A
:101E0C00071302C605C5050000000048040804D7E6
:101E1C00034341534120494E54454C4947454E5488
:101E2C0045004143453100414345312D412D47315A
:081E3C00312D5331000D0A00A5
:00000001FF
