:020000040000FA
:100000000C9441010C9472010C9472010C947201D5
:100010000C9472010C9472010C9472010C94720194
:100020000C9472010C9472010C9472010C94720184
:100030000C9472010C9472010C9472010C94720174
:100040000C9472010C9452080C9472010C9472017D
:100050000C9472010C9472010C9472010C947E0742
:100060000C9472010C9472010C9472010C94720144
:100070000C9472010C9472010C9472010C94720134
:100080000C9424080C9472010C9472010C9472016B
:100090000C9448070C941E070C9472010C94720186
:1000A0000C9472010C9472010C94F6070C9472017A
:1000B0000C9472010C9472010C9472010C94C80798
:1000C0000C9472010C9472010C9472010C947201E4
:1000D0000C9472010C9472010C9472010C947201D4
:1000E0000C9472010C9463020C9484030C947102BE
:1000F0000C9477030C94C5080C949C030C9408048E
:100100000C94A5030C9448040C9480030C94A00355
:100110000C946F030C947A030C9473030C94C50530
:100120000C94F6020C946B030C9413020C9465036C
:100130000C9440020C9498030C944F020C94D70337
:100140000C94C6050C9492030C948A030C94180723
:100150000C94AA030C94A6030C94A9020C948E038D
:1001600000002100240027002A002D003000330069
:1001700001010000040107010A010000220025001E
:1001800028002B002E003100340002010000050180
:1001900008010B0100000A0B02090C0D0E080703F1
:1001A000040100000000000000000000000000004A
:1001B000000000000000000000000000000000003F
:1001C00012111000000000000000000000000000FC
:1001D00000000000000000000000000020002300DC
:1001E000260029002C002F0032000001000003012E
:1001F00006010901050505050705080808080202AA
:1002000002020A0A080804040404010101010101B0
:1002100001010303030303030303040707070C0C93
:100220000C0C0C0C0C0C020202020606060606065A
:1002300006060B0B0B0B0B0B0B0B010210202008FF
:100240000810204010204080020102010804020131
:1002500001020408102040808040201008040201A0
:1002600080040201804020100804020108040201F9
:100270000102040810204080010204081020408080
:10028000C50811241FBECFEFD1E2DEBFCDBF00E015
:100290000CBF12E0A0E0B2E0ECEDFDE100E00BBF2E
:1002A00002C007900D92A836B107D9F724E0A8E65E
:1002B000B2E001C01D92A533B207E1F711E0C1E43D
:1002C000D1E000E006C021970109802FFE010E94C5
:1002D000E40EC034D10780E00807A9F70E9499090D
:1002E0000C94EC0E0C940000CF92DF92EF92FF92F0
:1002F000DC01A03282E0B807D4F5A53BB10514F0CB
:10030000A4EBB0E04091330428E830E0241B31092D
:1003100047FD3395220F331F220F331F6901330F1F
:10032000EE08FF084091340428E532E0241B31092F
:1003300047FD3395220F331F220F331F032E000C6E
:10034000440B550B2C193D094E095F09B7FF02C03C
:10035000B0E0A0E00E946E0D24EB30E040E050E001
:100360000E94440DC20ED31EE41EF51ED601E0917C
:100370003204E03380F52091330488E890E0821B5A
:10038000910927FD9395880F991F880F991FA8172A
:10039000B90784F02091340488E592E0821B91092A
:1003A00027FD9395880F991F880F991FA817B907E4
:1003B0000CF4CD010297880F991F4FB7F8942E2F98
:1003C00030E0F901EE0FFF1FE20FF31FE65EFC4F76
:1003D000928381834FBFFF90EF90DF90CF9008957D
:1003E00096E0899FD0011124AD53BC4F90967C9329
:1003F0006E935F9791E091969C939197E091300472
:10040000F091310490912F04992339F0309751F0F5
:10041000811108C08091DF031994309719F05C9620
:100420008C91FACF0895AF92BF92CF92DF92EF9264
:10043000FF920F931F93CF93DF936C017B018B018E
:10044000040F151FEB015E01AE18BF08C017D107DE
:1004500059F06991D601ED91FC910190F081E02D68
:10046000C6011995892B79F7C501DF91CF911F91AD
:100470000F91FF90EF90DF90CF90BF90AF900895D5
:10048000FC01538D448D252F30E0842F90E0821B9A
:10049000930B541710F0CF96089501970895FC011F
:1004A000918D828D981761F0A28DAE0FBF2FB11D77
:1004B0005D968C91928D9F5F9F73928F90E00895CF
:1004C0008FEF9FEF0895FC01918D828D981731F089
:1004D000828DE80FF11D858D90E008958FEF9FEFDD
:1004E0000895FC01918D228D892F90E0805C9F4FB3
:1004F000821B91098F73992708958DE792E00E94DE
:10050000710221E0892B09F420E0822F0895FC017B
:10051000A48DA80FB92FB11DA35ABF4F2C91848D64
:1005200090E001968F739927848FA689B7892C93C1
:10053000A089B1898C91837080648C93938D848D14
:10054000981306C00288F389E02D80818F7D808317
:100550000895EF92FF920F931F93CF93DF93EC01D7
:1005600081E0888F9B8D8C8D98131AC0E889F9895A
:10057000808185FF15C09FB7F894EE89FF8960835D
:10058000E889F98980818370806480839FBF81E0DE
:1005900090E0DF91CF911F910F91FF90EF90089520
:1005A000F62E0B8D10E00F5F1F4F0F731127E02EFB
:1005B0008C8D8E110CC00FB607FCFACFE889F98933
:1005C000808185FFF5CFCE010E948702F1CFEB8DB0
:1005D000EC0FFD2FF11DE35AFF4FF0829FB7F89407
:1005E0000B8FEA89FB8980818062CFCFCF93DF9325
:1005F000EC01888D8823B9F0AA89BB89E889F9893B
:100600008C9185FD03C0808186FD0DC00FB607FC6F
:10061000F7CF8C9185FFF2CF808185FFEDCFCE01A2
:100620000E948702E9CFDF91CF91089580E090E0AA
:10063000892B49F080E090E0892B29F00E9400008E
:1006400081110E94000080E090E0892B29F00E9437
:100650007D0281110E94000080E090E0892B49F02A
:1006600080E090E0892B29F00E94000081110E9417
:10067000000080E090E0892B49F080E090E0892B39
:1006800029F00E94000081110C940000089581500F
:10069000823108F05AC0E82FF0E08827ED5AFC4F6D
:1006A0008F4F0C94E40E7303770365036B036F03A2
:1006B000A5037A03800384038A038E0392039803BD
:1006C0009C03A503A003A603AA03809180008F7753
:1006D000809380000895809180008F7DF9CF809174
:1006E0008000877FF5CF84B58F7784BD089584B56A
:1006F0008F7DFBCF8091B0008F778093B0000895FD
:100700008091B0008F7DF9CF809190008F7780939A
:1007100090000895809190008F7DF9CF8091900096
:10072000877FF5CF8091A0008F778093A0000895F8
:100730008091A0008F7DF9CF8091A000877FF5CFB9
:10074000809120018F77809320010895809120016E
:100750008F7DF9CF80912001877FF5CFCF93DF93F5
:10076000282F30E0F901EC56FE4F8491F901E65C48
:10077000FD4FD491F901EC50FE4FC491CC23A1F070
:1007800081110E944703EC2FF0E0EE0FFF1FE652AD
:10079000FE4FA591B491EC91ED2381E090E009F436
:1007A00080E0DF91CF91089580E090E0FACF862F2E
:1007B0000C94AE031F93CF93DF93282F30E0F90101
:1007C000EC56FE4F8491F901E65CFD4FD491F9019E
:1007D000EC50FE4FC491CC23A9F0162F81110E943A
:1007E0004703EC2FF0E0EE0FFF1FE658FE4FA591F8
:1007F000B4918FB7F894EC91111108C0D095DE2315
:10080000DC938FBFDF91CF911F910895DE2BF8CF3E
:10081000862F642F0C94DA03CF93DF9390E0FC01D2
:10082000E65CFD4F24918C509E4FFC0184918823FF
:10083000C9F090E0880F991FFC01E05AFE4FA59186
:10084000B491FC01E658FE4FC591D49161110DC0E1
:100850009FB7F8948C91209582238C9388812823CC
:1008600028839FBFDF91CF910895623051F49FB7E5
:10087000F8943C91822F809583238C93E8812E2BD2
:10088000EFCF8FB7F894EC912E2B2C938FBFEACF3C
:10089000862F642F0C940C043FB7F894809171025A
:1008A00090917202A0917302B091740226B5A89B38
:1008B00005C02F3F19F00196A11DB11D3FBFBA2FF2
:1008C000A92F982F8827BC01CD01620F711D811DB2
:1008D000911D42E0660F771F881F991F4A95D1F737
:1008E00008958F929F92AF92BF92CF92DF92EF9234
:1008F000FF924B015C010E944C046B017C010E9441
:100900004C046C197D098E099F09683E734081056E
:100910009105A8F321E0821A9108A108B10888EE98
:10092000C80E83E0D81EE11CF11C81149104A104BF
:10093000B10429F7FF90EF90DF90CF90BF90AF9078
:100940009F908F9008952FB7F89460916D027091E9
:100950006E0280916F02909170022FBF08950F93E5
:100960001F93CF93DF93C82FD62F86E0C89FF00147
:100970001124ED53FC4F11A2878D90A18130910578
:10098000F1F058F082309105F1F1039709F440C07D
:10099000DF91CF911F910F9108956623C9F361E014
:1009A00070E08C2F0E94F0010E94A30460931B044E
:1009B00070931C0480931D0490931E04E9CF0E9441
:1009C000A30400911B0410911C0420911D0430917C
:1009D0001E04AB01BC01401B510B620B730B8091D9
:1009E0002D0490912E04B0E0A0E084179507A6078F
:1009F000B70748F462E070E08C2FDF91CF911F9130
:100A00000F910C94F00163E070E0D111C1CFF4CFED
:100A100070E060E0F1CFAF92BF92CF92DF92EF92A1
:100A2000FF920F931F93CF93DF936B017A01EC0139
:100A3000C859DD4F28813CE0389F8001399F100D57
:100A40001124A090AA03B12C27FF1FC0FB01118223
:100A5000108288818F5F888388819801280F311DDB
:100A600087FD3A95F6012A153B051CF488818C30E8
:100A7000C4F180819181049680349C4908F473C04C
:100A8000F60180819181049670C088819801280FB9
:100A9000311D87FD3A952A153B05DCF68881A801B2
:100AA000480F511D87FD5A95FA01EE0FFF1FE40F05
:100AB000F51FE65EFC4F808186FFCBCF8881F80171
:100AC000E80FF11D87FDFA95CF01EE0FFF1FE80F2C
:100AD000F91FE65EFC4F808160E08F730E94DA03AD
:100AE000B8CF808191812881A801420F511D27FD37
:100AF0005A959A01FA01EE0FFF1FE20FF31FE65E0F
:100B0000FC4F21813281820F931FF70191838083F3
:100B100088819801280F311D87FD3A95F901EE0F64
:100B2000FF1FE20FF31FE65EFC4F808186FF22C0AD
:100B30008881080F111D87FD1A95F801EE0FFF1F20
:100B4000E00FF11FE65EFC4F808161E08F73DF9163
:100B5000CF911F910F91FF90EF90DF90CF90BF90BA
:100B6000AF900C94DA0380E49CE9F70191838083D1
:100B70008FEF8883DF91CF911F910F91FF90EF90BE
:100B8000DF90CF90BF90AF900895089590E080E0FF
:100B90000895FC0101900020E9F73197AF01481B4F
:100BA000590BBC018BEA93E00C941302CF93DF93B3
:100BB000EC0160E08E810E94DA0361E08E810E9488
:100BC000DA0360E08E810E94DA038BE891E00197FE
:100BD000F1F7DF91CF910895CF92DF92EF92FF92DC
:100BE0000F931F93CF93DF936C017C0187E0E80E96
:100BF000F11CD0E0C0E0062F10E0B8010C2E02C0BE
:100C0000759567950A94E2F76170F70181917F010C
:100C10000E94DA032196C430D10579F7C601DF912D
:100C2000CF911F910F91FF90EF90DF90CF900C9498
:100C3000D605CF92DF92EF92FF920F931F93CF933F
:100C4000DF93EC01F62E642F8C810E94DA038D81F4
:100C50008F3F19F060E00E94DA030F2D10E08F85BE
:100C600084FF25C06E0187E0C80ED11CF12CE12C59
:100C7000B8010E2C02C0759567950A94E2F7617071
:100C8000F60181916F010E94DA03FFEFEF1AFF0A6C
:100C900088E0E816F10461F7CE01DF91CF911F9152
:100CA0000F91FF90EF90DF90CF900C94D605B80194
:100CB00084E0759567958A95E1F7CE010E94EC0571
:100CC0006F2DCE01DF91CF911F910F91FF90EF908B
:100CD000DF90CF900C94EC0540E0682F8BEA93E016
:100CE0000C941906CF93DF93823029F49091BA03C4
:100CF00098609093BA038093BE031092BF0380E480
:100D00008093C00380E18093C10380E58093C20398
:100D100061E08091AF030E940C048091B0038F3F8B
:100D200019F061E00E940C0461E08091B1030E941F
:100D30000C04CBEAD3E09E012B5A33408091BA03D6
:100D400084FD0BC084E090E021962817390744F415
:100D500061E08E810E940C04EECF88E090E0F4CF39
:100D60008BE39DE00197F1F760E08091AF030E9473
:100D7000DA0360E08091B1030E94DA038091B0034E
:100D80008F3F19F060E00E94DA038091BA0384FD7E
:100D900039C063E08BEA93E00E94EC05CBE4D6E433
:100DA000CE010197F1F763E08BEA93E00E94EC0536
:100DB0002197F1F763E08BEA93E00E94EC0583E56D
:100DC00092E00197F1F762E08BEA93E00E94EC0574
:100DD0008091BA0380620E946C0684E08093BB031A
:100DE0008CE00E946C0681E00E946C068BE39FE120
:100DF0000197F1F782E08093BC0386E0DF91CF9109
:100E00000C946C0680620E946C068BE496E4019759
:100E1000F1F78091BA0380620E946C0683E592E04C
:100E20000197F1F78091BA0380620E946C06D0CFDF
:100E300041E00E94190681E090E008951F920F9210
:100E40000FB60F9211240BB60F922F933F934F932F
:100E50005F936F937F938F939F93AF93BF93EF9322
:100E6000FF938DE792E00E948702FF91EF91BF917F
:100E7000AF919F918F917F916F915F914F913F9132
:100E80002F910F900BBE0F900FBE0F901F901895D3
:100E90001F920F920FB60F9211240BB60F922F9341
:100EA0008F939F93EF93FF93E0918D02F0918E02C9
:100EB0008081E0919302F091940282FD1DC09081A7
:100EC000809196028F5F8F7320919702821741F075
:100ED000E0919602F0E0E358FD4F958F80939602E3
:100EE000FF91EF919F918F912F910F900BBE0F90DB
:100EF0000FBE0F901F9018958081F2CF1F920F9216
:100F00000FB60F9211242F933F938F939F93AF931C
:100F1000BF9380916D0290916E02A0916F02B0918B
:100F2000700230916C0223E0230F2D3758F50196A3
:100F3000A11DB11D20936C0280936D0290936E02EF
:100F4000A0936F02B093700280917102909172022F
:100F5000A0917302B09174020196A11DB11D8093FE
:100F6000710290937202A0937302B0937402BF91C6
:100F7000AF919F918F913F912F910F900FBE0F9046
:100F80001F90189526E8230F0296A11DB11DD2CF00
:100F90001F920F920FB60F9211240BB60F922F9340
:100FA0003F934F935F936F937F938F939F93AF93F1
:100FB000BF93EF93FF9348E251E064E271E090E069
:100FC00080E00E940B05FF91EF91BF91AF919F913F
:100FD0008F917F916F915F914F913F912F910F90E2
:100FE0000BBE0F900FBE0F901F9018951F920F927F
:100FF0000FB60F9211240BB60F922F933F934F937E
:101000005F936F937F938F939F93AF93BF93EF9370
:10101000FF9348EA50E064EA70E083E090E00E94C9
:101020000B05FF91EF91BF91AF919F918F917F91B0
:101030006F915F914F913F912F910F900BBE0F9049
:101040000FBE0F901F9018951F920F920FB60F9220
:1010500011240BB60F922F933F934F935F936F938F
:101060007F938F939F93AF93BF93EF93FF9348E941
:1010700050E064E970E082E090E00E940B05FF918F
:10108000EF91BF91AF919F918F917F916F915F9100
:101090004F913F912F910F900BBE0F900FBE0F906D
:1010A0001F9018951F920F920FB60F9211240BB636
:1010B0000F922F933F934F935F936F937F938F93F1
:1010C0009F93AF93BF93EF93FF9348E850E064E89A
:1010D00070E081E090E00E940B05FF91EF91BF91DD
:1010E000AF919F918F917F916F915F914F913F91C0
:1010F0002F910F900BBE0F900FBE0F901F90189561
:10110000CF92DF92EF92FF920F931F93E82FF92F68
:1011100005C0015011092109310961F1908196231F
:101120009417B9F305C0015011092109310911F1D2
:10113000908196239413F7CFC12CD12CE12CF12C64
:101140000AC08FEFC81AD80AE80AF80A0C151D055C
:101150002E053F0579F080818623841791F36C2D4D
:101160007D2D8E2D9F2D1F910F91FF90EF90DF9081
:10117000CF90089560E070E080E090E01F910F91C3
:10118000FF90EF90DF90CF90089510928002109220
:101190007F0288EE93E0A0E0B0E08093810290931C
:1011A0008202A0938302B09384028DE192E0909337
:1011B0007E0280937D028DEC90E090938A02809372
:1011C00089028CEC90E090938C0280938B0288ECE7
:1011D00090E090938E0280938D0289EC90E0909342
:1011E000900280938F028AEC90E090939202809319
:1011F00091028EEC90E0909394028093930210926F
:101200009602109297021092980210929902809181
:10121000AA03803308F089C091E0980F9093AA0345
:101220008093320490E0FC01EE0FFF1FE80FF91FDE
:10123000E65EFC4F88EB9BE0928381831092C503AE
:101240001092C9031092C8031092CA038BE392E074
:101250009093C4038093C303EFEDF3E010821482F4
:1012600013821582369684E0EB31F807B9F783E0F4
:1012700092E0909326048093250480E092E090937E
:1012800028048093270484E08093290483E08093DA
:101290002A0487E092E090932404809323048AE058
:1012A00090E090932C0480932B0484EF91E0909332
:1012B0002E0480932D041092310410923004109269
:1012C0001F04109220041092210410922204109204
:1012D0002F041092AE031092AD038FE292E0909330
:1012E000AC038093AB038DE08093AF038FEF8093CB
:1012F000B0038CE08093B10387E28093B20385E270
:101300008093B30383E28093B40381E28093B503B7
:101310001092B6031092B7031092B8031092B9035B
:101320001092BA0381E00C9472068FEF809332041E
:1013300085CF789484B5826084BD84B5816084BD96
:1013400085B5826085BD85B5816085BD80916E0063
:10135000816080936E001092810080918100826094
:1013600080938100809181008160809381008091D1
:1013700080008160809380008091B10084608093C0
:10138000B1008091B00081608093B00080919100A5
:1013900082608093910080919100816080939100A0
:1013A000809190008160809390008091A100826084
:1013B0008093A1008091A10081608093A100809121
:1013C000A00081608093A0008091210182608093C1
:1013D0002101809121018160809321018091200170
:1013E00081608093200180917A00846080937A00EC
:1013F00080917A00826080937A0080917A00816087
:1014000080937A0080917A00806880937A001092AD
:10141000C100E0918D02F0918E0282E08083E09124
:101420008902F0918A021082E0918B02F0918C0285
:101430008FEC808310929502E0919102F0919202DC
:1014400086E08083E0918F02F0919002808180613C
:101450008083E0918F02F091900280818860808388
:10146000E0918F02F0919002808180688083E0910A
:101470008F02F091900280818F7D808361E084E013
:101480000E940C0461E089E00E940C0461E085E0A8
:101490000E940C0480913204803308F052C061E055
:1014A0008AE00E940C0480913204282F30E0F90178
:1014B000EE0FFF1FE20FF31FE65EFC4F9081907C62
:1014C0009A60908310923304109234042CE0622FBF
:1014D0000E94D80E829FB001112430E020E0AB01C1
:1014E000420F531FFA01EE0FFF1FE40FF51FE65ED8
:1014F000FC4F908196FD17C02F5F3F4F2C30310578
:1015000071F7813009F0EFC01092800082E0809383
:1015100081001092850010928400B19A80916F0032
:10152000826080936F00E09132048E2F90E0FC0186
:10153000EE0FFF1FE80FF91FE65EFC4F808180640D
:10154000808382E00E94720677247394812C912C10
:101550005401839422242A94322C76E0672E81E46D
:1015600092E00E94C905E091BE03E23008F0E7C0B6
:10157000E150F0E0E555FC4F848980680E946C06DC
:1015800082E592E00E94C90568EB7BE080E090E094
:101590000E947104E1E08091BE038111E0E0E195D9
:1015A000F0E0E555FC4F848980680E946C0681E07C
:1015B0000E946C068BE39FE10197F1F787E592E0CB
:1015C0000E94C90568EB7BE080E090E00E94710416
:1015D000E1E08091BE038111E0E0E195F0E0E555A6
:1015E000FC4F848980680E946C0661E08BE00E9459
:1015F0000C0460E08BE00E94DA0383E090E0019746
:10160000F1F761E08BE00E94DA0383E290E001975A
:10161000F1F760E08BE00E94DA0360E08BE00E946B
:101620000C04E5E4F2E06491EFEFF1E0E491F0E026
:10163000EE0FFF1FE652FE4F8591949100E412E4F5
:101640002FE030E0462F0E9480086115710581056A
:10165000910529F06F5F7F4F8F4F9F4F9F700E94C2
:10166000DF0D2EEE35E24DE85CE30E94430E0E9452
:10167000A70D663971050CF056C180917B029091DF
:101680007C0206970CF070C170922F040E94A30494
:1016900000911F0410912004209121043091220414
:1016A000AB01BC01401B510B620B730B80912B04EF
:1016B00090912C04B0E0A0E084179507A607B70727
:1016C00008F03AC1C0E080912904C817D0F5E09134
:1016D0002504F0912604EC0FF11D62E080810E9448
:1016E0000C04CF5FF0CF823061F4109290008093B1
:1016F0009100109295001092940088BB8093710025
:1017000012CF833069F41092A00082E08093A10090
:101710001092A5001092A40089BB8093720003CFA1
:10172000811101CF1092200182E08093210110925B
:101730002501109224018ABB80937300F4CEE1E06E
:1017400018CF512C80912A04581608F05FC0052D3F
:1017500010E0E0912704F0912804E00FF11F61E010
:1017600080810E940C04E0912704F0912804E00F8E
:10177000F11F60E080810E94DA03D501C401052CCD
:1017800004C0880F991FAA1FBB1F0A94D2F76C01CF
:101790007C01E094F094412C809129044816F8F4DF
:1017A000C42DD0E0E0912504F0912604EC0FFD1F3C
:1017B00080810E94AE032496CC0FDD1FCD53DC4FF9
:1017C000892B41F4888199818C299D29998388836B
:1017D0004394E2CF888199818E219F21F7CFE091B8
:1017E0002704F0912804E00FF11F61E080810E943E
:1017F000DA038091270490912804080F191F60E0F4
:10180000F80180810E940C0453949CCFC3ECD3E078
:101810008FEF93E08E01F801278D30A1232B21F467
:10182000148E368E258E11A20A5F1F4F80179107E6
:1018300091F7F12C80912904F81608F052C0E12CA0
:101840008F2D90E0880F991F9C0125533C4F690113
:1018500080912A04E81608F042C0F6016081718187
:101860000E2C02C0769567950A94E2F7F89EA001C7
:1018700011244E0D511DE3ECF3E080E0258D368DF3
:101880004217530709F4FEC08F5F36968A30B1F7CE
:1018900060FF23C0E3ECF3E090E080E0248D2111B1
:1018A00017C0E0912304F0912404E40FF51F208178
:1018B000689EF001699EF00D1124ED53FC4F248FBA
:1018C000568F458F10A2178E61E00E94AF0405C0AD
:1018D000019636968A30910509F7E394B9CFF394CF
:1018E000A9CFF12C89A18111F82E2696C017D10716
:1018F000C9F70E94A30460931F047093200480938F
:10190000210490932204FF20B9F08091E4038823FE
:1019100099F08091E2039091E303019769F460915B
:10192000DF0361110CC060E971E080E090E00E948B
:1019300071040E94160313CE10922F04F4CFC091AD
:101940007B02D0917C02FE01ED5EFD4F808186130B
:1019500070927A028DE792E00E94A9022196D093BC
:101960007C02C0937B02DFCF80917A028823F1F161
:10197000C0917702D0917802C230D1055CF561E068
:1019800089E00E94DA0310927C0210927B0210928E
:101990007A022196D0937802C09377026AE08DE7AD
:1019A00092E00E94A90242E050E065E672E08DE715
:1019B00092E00E94130260ED77E080E090E00E94E8
:1019C000710460E089E00E94DA0360E084E00E9434
:1019D000DA03A9CF0E94A30424E630E040E050E0FF
:1019E0000E94760D622F617085E0F1CF80917902BF
:1019F000811143C01092760210927502C091750257
:101A0000D0917602CA35D1057CF4CE010E947401D2
:101A100062E370E080E090E00E9471042196D09330
:101A20007602C0937502EACF68EE73E080E090E042
:101A30000E9471048AE590E090937602809375028B
:101A4000C0917502D0917602D7FD0FC0CE010E94E1
:101A5000740162E370E080E090E00E9471042197DD
:101A6000D0937602C0937502EBCF68EE73E080E00E
:101A700090E00E94710470927902109278021092A4
:101A8000770251CF617021CF052E97FB1EF4009491
:101A90000E945B0D57FD07D00E94760D07FC03D016
:101AA0004EF40C945B0D50954095309521953F4F29
:101AB0004F4F5F4F089590958095709561957F4F3A
:101AC0008F4F9F4F08950E94980DA59F900DB49F32
:101AD000900DA49F800D911D11240895B7FF0C94C3
:101AE000630D0E94630D821B930B0895A1E21A2ED1
:101AF000AA1BBB1BFD010DC0AA1FBB1FEE1FFF1FB2
:101B0000A217B307E407F50720F0A21BB30BE40B01
:101B1000F50B661F771F881F991F1A9469F7609548
:101B20007095809590959B01AC01BD01CF01089502
:101B3000A29FB001B39FC001A39F700D811D11240E
:101B4000911DB29F700D811D1124911D08950E9459
:101B5000AE0D6894B1110C943D0E08950E94220EB2
:101B600088F09F5798F0B92F9927B751B0F0E1F05E
:101B7000660F771F881F991F1AF0BA95C9F714C00E
:101B8000B13091F00E943C0EB1E008950C943C0EEF
:101B9000672F782F8827B85F39F0B93FCCF3869547
:101BA00077956795B395D9F73EF4909580957095A4
:101BB00061957F4F8F4F9F4F0895E89409C097FB21
:101BC0003EF490958095709561957F4F8F4F9F4F14
:101BD0009923A9F0F92F96E9BB279395F695879558
:101BE00077956795B795F111F8CFFAF4BB0F11F41B
:101BF00060FF1BC06F5F7F4F8F4F9F4F16C08823C2
:101C000011F096E911C0772321F09EE8872F762FF7
:101C100005C0662371F096E8862F70E060E02AF038
:101C20009A95660F771F881FDAF7880F9695879524
:101C300097F9089557FD9058440F551F59F05F3F8D
:101C400071F04795880F97FB991F61F09F3F79F0DE
:101C500087950895121613061406551FF2CF469560
:101C6000F1DF08C0161617061806991FF1CF8695E2
:101C70007105610508940895E894BB2766277727C6
:101C8000CB0197F908950E94560E0C94C70E0E943E
:101C9000B90E38F00E94C00E20F0952311F00C947C
:101CA000B00E0C94B60E11240C943D0E0E941A0E28
:101CB00070F3959FC1F3950F50E0551F629FF0019F
:101CC000729FBB27F00DB11D639FAA27F00DB11DB8
:101CD000AA1F649F6627B00DA11D661F829F222741
:101CE000B00DA11D621F739FB00DA11D621F839FC8
:101CF000A00D611D221F749F3327A00D611D231F9E
:101D0000849F600D211D822F762F6A2F11249F57EB
:101D100050409AF0F1F088234AF0EE0FFF1FBB1FEE
:101D2000661F771F881F91505040A9F79E3F5105AD
:101D300080F00C94B00E0C943D0E5F3FE4F3983E9F
:101D4000D4F3869577956795B795F795E7959F5F57
:101D5000C1F7FE2B880F911D9695879597F90895E9
:101D600097F99F6780E870E060E008959FEF80EC4E
:101D7000089500240A9416161706180609060895F1
:101D800000240A9412161306140605060895092E57
:101D90000394000C11F4882352F0BB0F40F4BF2BC6
:101DA00011F460FF04C06F5F7F4F8F4F9F4F089506
:101DB000991B79E004C0991F961708F0961B881F9D
:101DC0007A95C9F780950895EE0FFF1F881F8BBF86
:101DD0000790F691E02D1994F894FFCF3133351721
:101DE000191B1D3132333435363738392A30233216
:101DF000303231313100000000A90213024002F6F6
:101E00000271024F0263020000000018071302C6AD
:101E100005C5050000000048040804D703434153EA
:101E20004120494E54454C4947454E544500414395
:101E3000453100414345312D412D4731312D53313D
:041E4000000D0A0087
:10E000000D9489F10D94B2F10D94B2F10D94B2F129
:10E010000D94B2F10D94B2F10D94B2F10D94B2F1F0
:10E020000D94B2F10D94B2F10D94B2F10D94B2F1E0
:10E030000D94B2F10D94B2F10D94B2F10D94B2F1D0
:10E040000D94B2F10D94B2F10D94B2F10D94B2F1C0
:10E050000D94B2F10D94B2F10D94B2F10D94B2F1B0
:10E060000D94B2F10D94B2F10D94B2F10D94B2F1A0
:10E070000D94B2F10D94B2F10D94B2F10D94B2F190
:10E080000D94B2F10D94B2F10D94B2F10D94B2F180
:10E090000D94B2F10D94B2F10D94B2F10D94B2F170
:10E0A0000D94B2F10D94B2F10D94B2F10D94B2F160
:10E0B0000D94B2F10D94B2F10D94B2F10D94B2F150
:10E0C0000D94B2F10D94B2F10D94B2F10D94B2F140
:10E0D0000D94B2F10D94B2F10D94B2F10D94B2F130
:10E0E0000D94B2F141546D656761323536300041AF
:10E0F000726475696E6F206578706C6F72657220DE
:10E1000073746B3530305632206279204D4C530099
:10E11000426F6F746C6F616465723E004875683F52
:10E1200000436F6D70696C6564206F6E203D200048
:10E130004350552054797065202020203D20005FF9
:10E140005F4156525F415243485F5F3D2000415658
:10E1500052204C696243205665723D20004743437C
:10E160002056657273696F6E203D20004350552024
:10E1700049442020202020203D20004C6F7720663D
:10E18000757365202020203D20004869676820665F
:10E190007573652020203D200045787420667573D6
:10E1A00065202020203D20004C6F636B2066757336
:10E1B000652020203D20004D617220203720323024
:10E1C000313300312E362E3800342E332E350056A2
:10E1D00023202020414444522020206F7020636F70
:10E1E00064652020202020696E73747275637469E1
:10E1F0006F6E2061646472202020496E74657272B3
:10E20000757074006E6F20766563746F7200726A49
:10E210006D702020006A6D70200057686174207056
:10E220006F72743A00506F7274206E6F7420737541
:10E2300070706F72746564004D7573742062652030
:10E2400061206C6574746572002000577269747483
:10E25000696E672045450052656164696E672045B7
:10E26000450045452065727220636E743D00504F35
:10E27000525400303D5A65726F2061646472003FF1
:10E280003D43505520737461747300403D454550C3
:10E29000524F4D207465737400423D426C696E6B41
:10E2A000204C454400453D44756D70204545505215
:10E2B0004F4D00463D44756D7020464C415348001B
:10E2C000483D48656C70004C3D4C69737420492F83
:10E2D0004F20506F72747300513D51756974005234
:10E2E0003D44756D702052414D00563D73686F7707
:10E2F00020696E7465727275707420566563746FF0
:10E30000727300593D506F727420626C696E6B00BD
:10E310002A0011241FBECFEFD1E2DEBFCDBF01E046
:10E320000CBF12E0A0E0B2E0EEE1FDEF03E00BBFB6
:10E3300002C007900D92A030B107D9F712E0A0E01B
:10E34000B2E001C01D92AE30B107E1F70F9460F367
:10E350000D948DFE01E20EBF0FEF0DBF11241FBE05
:10E360000D9460F30D9400F020E030E040ED57E0B4
:10E3700005C0FA013197F1F72F5F3F4F2817390792
:10E38000C0F308959C01260F311DC901A0E0B0E043
:10E390002F5F3F4FABBFFC018791882361F08093D3
:10E3A000C6008091C00086FFFCCF8091C0008064D1
:10E3B0008093C000EACF08958DE08093C6008091DD
:10E3C000C00086FFFCCF8091C00080648093C000B5
:10E3D0008AE08093C6008091C00086FFFCCF8091C8
:10E3E000C00080648093C00008950F94C2F10F9420
:10E3F000DCF10895FC019081992359F09093C600B7
:10E400008091C00086FFFCCF8091C0008064809323
:10E41000C0003196992379F70895282F982F929567
:10E420009F70892F805D8A3308F0895F8093C600D2
:10E430008091C00086FFFCCF8091C00080648093F3
:10E44000C000822F8F70982F905D9A3308F0995FEB
:10E450009093C6008091C00086FFFCCF8091C000E1
:10E4600080648093C00008959C01FB01853691056E
:10E470001CF46330710594F0C90164E670E00F94F8
:10E480002EFE605D7F4F6093C6008091C00086FFC6
:10E49000FCCF8091C00080648093C0002B30310598
:10E4A00014F43297B4F0C90164E670E00F942EFEC4
:10E4B0006AE070E00F942EFE605D7F4F6093C600AF
:10E4C0008091C00086FFFCCF8091C0008064809363
:10E4D000C000C9016AE070E00F942EFEC0968093E0
:10E4E000C6008091C00086FFFCCF8091C000806490
:10E4F0008093C00008951F93182F8EE692EE60E07F
:10E500000F94C2F11093C6008091C00086FFFCCF2B
:10E510008091C00080648093C0000F94DCF11F9153
:10E5200008952F923F924F925F926F927F928F92B7
:10E530009F92AF92BF92CF92DF92EF92FF920F9392
:10E540001F93DF93CF93CDB7DEB762970FB6F894E2
:10E55000DEBF0FBECDBF382E622ECA01DB015C01CB
:10E560006D01772420E2222E2E010894411C511CBB
:10E570008BC081E0A81680E0B80681E0C80680E084
:10E58000D80628F0C601AA27BB270F940DF2BB2797
:10E59000AD2D9C2D8B2D0F940DF28A2D0F940DF225
:10E5A0002092C6008091C00086FFFCCF8091C00001
:10E5B00080648093C0009DE29093C6008091C0006B
:10E5C00086FFFCCF8091C00080648093C0002092C1
:10E5D000C6008091C00086FFFCCF8091C00080649F
:10E5E0008093C00019828601750188249924A1E0D6
:10E5F0003A1651F03A1620F0B2E03B1661F409C029
:10E600000BBFF701779007C0C7010F9477FE782EF4
:10E6100002C0F7017080872D0F940DF22092C60082
:10E620008091C00086FFFCCF8091C0008064809301
:10E63000C000872D8052F401EF70F0708F3520F408
:10E64000E40DF51D708204C0E40DF51D8EE280839B
:10E650000894E11CF11C011D111D0894811C911CE2
:10E6600090E18916910409F0C2CF80E190E0A0E02A
:10E67000B0E0A80EB91ECA1EDB1E198AC2010F9493
:10E68000FAF10F94DCF16A94662009F072CF629679
:10E690000FB6F894DEBF0FBECDBFCF91DF911F91B3
:10E6A0000F91FF90EF90DF90CF90BF90AF909F9031
:10E6B0008F907F906F905F904F903F902F90089534
:10E6C0002F923F924F925F926F927F928F929F9282
:10E6D000AF92BF92CF92DF92EF92FF920F931F9370
:10E6E000DF93CF93CDB7DEB7CD53D1400FB6F894BB
:10E6F000DEBF0FBECDBF01E20EBF0FEF0DBF94B75F
:10E70000F894A89514BE80916000886180936000A1
:10E7100010926000789493FF05C0E0910002F091A0
:10E7200001021995279A2F9A8091C00082608093E8
:10E73000C00080E18093C40088E18093C1000000A4
:10E74000EE24FF24870144E0A42EB12CCC24DD2448
:10E7500024C0C5010197F1F70894E11CF11C011DCB
:10E76000111D21E2E2162EE4F20620E0020720E06D
:10E77000120718F031E0C32ED12CC801B70127ECE5
:10E780003BE140E050E00F9441FE611571058105C9
:10E79000910519F485B1805885B98091C00087FD35
:10E7A00003C0C114D104A9F2A6014F5F5F4FC25E3E
:10E7B000DE4F59834883CE51D140C25EDE4F8881FF
:10E7C0009981CE51D140019711F00D9410FEC05D9A
:10E7D000DE4F19821882C053D14060E0C15DDE4F28
:10E7E0001882CF52D14088249924C35DDE4F19820C
:10E7F0001882CD52D140C05EDE4F188219821A8233
:10E800001B82C052D140CE5CDE4F188219821A8220
:10E810001B82C253D140EE24FF2487010BBFF701B6
:10E8200007911691C45CDE4F19830883CC53D14005
:10E830000D940BFEC25EDE4F28813981CE51D1404E
:10E840002130310509F52091C600C25EDE4F1982E4
:10E850001882CE51D14022C02F5F3F4F4F4F5F4FA4
:10E86000213082E138078AE7480780E0580780F0C6
:10E87000C45CDE4FE881F981CC53D140EF5FFF4F9C
:10E8800019F0EE27FF27099420E030E040E050E047
:10E890008091C00087FFE0CF2091C600C35DDE4FAE
:10E8A00048815981CD52D1404F5F5F4FC35DDE4FEC
:10E8B00059834883CD52D140213209F063C64A3092
:10E8C000510508F05FC60894811C911C53E0851621
:10E8D000910409F059C600E010E018C081E280936D
:10E8E000C6008091C00086FFFCCF8091C00080648C
:10E8F0008093C0002F5F3F4F2931310579F70F9486
:10E90000DCF10F5F1F4F0530110519F020E030E0FA
:10E91000E5CF10920A0210920B0210920C02109294
:10E920000D02109206021092070210920802109235
:10E930000902109202021092030210920402109235
:10E9400005028FEE90EE60E00F94F5F180E191EE1C
:10E9500060E00F94C2F18091C00087FFFCCF9091DE
:10E96000C600903608F09F759032B8F09093C600BC
:10E970008091C00086FFFCCF8091C00080648093AE
:10E98000C000A0E2A093C6008091C00086FFFCCF2B
:10E990008091C00080648093C000983409F4D7C18E
:10E9A0009934B8F4923409F459C1933458F490333B
:10E9B00019F1903308F4E3C59F33A1F1903409F0C5
:10E9C000DEC5BDC0953409F470C1963409F0D7C5D1
:10E9D00098C1923509F42BC2933538F49C3409F46C
:10E9E000F5C1913509F0CBC518C2963509F445C279
:10E9F000993509F0C4C567C483E792EE62E00F94CD
:10EA0000F5F110920602109207021092080210927D
:10EA1000090210920A0210920B0210920C0210923C
:10EA20000D0213C18FE792EE62E00F94F5F18FEEC5
:10EA300090EE60E00F94F5F181E291EE60E00F94CA
:10EA4000C2F187EB91EE60E00F94F5F180E391EE77
:10EA500060E00F94C2F184EE90EE60E00F94F5F167
:10EA60008FE391EE60E00F94C2F186E090E061E008
:10EA700070E00F9434F20F94DCF18DE591EE60E0DC
:10EA80000F94C2F189EC91EE60E00F94F5F18EE401
:10EA900091EE60E00F94C2F183EC91EE60E00F9490
:10EAA000F5F18CE691EE60E00F94C2F18EE10F94E7
:10EAB0000DF288E90F940DF281E00F940DF20F949E
:10EAC000DCF18BE791EE60E00F94C2F119E0E0E039
:10EAD000F0E010935700E4918E2F0F940DF20F94F5
:10EAE000DCF18AE891EE60E00F94C2F1E3E0F0E03F
:10EAF00010935700E4918E2F0F940DF20F94DCF1D8
:10EB000089E991EE60E00F94C2F1E2E0F0E0109349
:10EB10005700E4918E2F0F940DF20F94DCF188EAE8
:10EB200091EE60E00F94C2F1E1E0F0E01093570045
:10EB30001491812F0F940DF20F94DCF107CF8BE825
:10EB400092EE62E00F94F5F18BE492EE60E00F94A8
:10EB5000F5F10F94DCF100E010E019C0C8016F2D51
:10EB60000F947FFEFF2031F489E492EE60E00F9471
:10EB7000C2F10BC0F092C6008091C00086FFFCCFAE
:10EB80008091C00080648093C0000F5F1F4FC80158
:10EB900081519F41A0E0B0E0ABBFFC01F790BAE229
:10EBA000FB1621F0E2E000301E07C1F60F94DCF105
:10EBB0000F94DCF187E592EE60E00F94F5F10F948D
:10EBC000DCF1CC24DD2400E010E01EC0C8010F946D
:10EBD00077FEF82E882331F489E492EE60E00F94FA
:10EBE000C2F10BC08093C6008091C00086FFFCCFAD
:10EBF0008091C00080648093C000FE1419F00894D6
:10EC0000C11CD11C0F5F1F4FC80181519F41A0E063
:10EC1000B0E0ABBFFC01E790FAE2EF1621F022E092
:10EC20000030120799F60F94DCF10F94DCF182E6C4
:10EC300092EE60E00F94C2F1C60161E070E00F94C3
:10EC400034F20F94DCF10F94DCF110920202109276
:10EC50000302109204021092050278CE89E992EE26
:10EC600062E00F94F5F1279A2F9A16C02F9880E052
:10EC700090E0E0EDF7E03197F1F7019684369105E9
:10EC8000C1F72F9A80E090E0E0EDF7E03197F1F7DF
:10EC9000019684369105C1F78091C00087FFE6CFC9
:10ECA0008091C00087FFFCCF64C485EA92EE62E0E9
:10ECB0000F94F5F140910202509103026091040219
:10ECC0007091050281E020E10F9491F2809102029F
:10ECD00090910302A0910402B091050280509F4FD1
:10ECE000AF4FBF4F8093020290930302A0930402A0
:10ECF000B093050280509041A040B04008F426CE69
:10ED0000A4CF83EB92EE62E00F94F5F140910602FE
:10ED100050910702609108027091090280E020E1A1
:10ED20000F9491F28091060290910702A09108023F
:10ED3000B091090280509F4FAF4FBF4F80930602A2
:10ED400090930702A0930802B0930902FFCD80ECD4
:10ED500092EE62E00F94F5F183E792EE60E00F949B
:10ED6000F5F18FE792EE60E00F94F5F18BE892EE0B
:10ED700060E00F94F5F189E992EE60E00F94F5F10F
:10ED800085EA92EE60E00F94F5F183EB92EE60E09D
:10ED90000F94F5F180EC92EE60E00F94F5F187ECC2
:10EDA00092EE60E00F94F5F188ED92EE60E00F9442
:10EDB000F5F18FED92EE60E00F94F5F18AEE92EEB0
:10EDC00060E00F94F5F183E093EEBDCD87EC92EE19
:10EDD00062E00F94F5F181E40F947BF282E40F94EA
:10EDE0007BF283E40F947BF284E40F947BF285E45E
:10EDF0000F947BF286E40F947BF287E40F947BF20E
:10EE000088E40F947BF28AE40F947BF28BE40F94F6
:10EE10007BF28CE40F947BF299CD88ED92EE62E068
:10EE20000F94F5F1772473948824992409C48FED05
:10EE300092EE62E00F94F5F140910A0250910B02BC
:10EE400060910C0270910D0282E020E10F9491F22A
:10EE500080910A0290910B02A0910C02B0910D02D8
:10EE600080509F4FAF4FBF4F80930A0290930B0289
:10EE7000A0930C02B0930D0269CD8AEE92EE62E08F
:10EE80000F94F5F184EE90EE60E00F94F5F18FECC5
:10EE900091EE60E00F94F5F1662477244301CC5D98
:10EEA000DE4F19821882C452D140D401C301B695F5
:10EEB000A79597958795CA5DDE4F88839983AA8326
:10EEC000BB83C652D140CC5DDE4FA881B981C4520C
:10EED000D1401196CC5DDE4FB983A883C452D14096
:10EEE000CD0162E070E00F9434F2B0E2B093C6005E
:10EEF0008091C00086FFFCCF8091C0008064809329
:10EF0000C000EDE2E093C6008091C00086FFFCCF18
:10EF10008091C00080648093C000F0E2F093C6004E
:10EF20008091C00086FFFCCF8091C00080648093F8
:10EF3000C000CA5DDE4FE880F9800A811B81C6529D
:10EF4000D140BB27A12F902F8F2D0F940DF2CA5DBA
:10EF5000DE4F8881C652D1400F940DF2B0E2FB2EF5
:10EF6000F092C6008091C00086FFFCCF8091C00067
:10EF700080648093C0000DE30093C6008091C000C0
:10EF800086FFFCCF8091C00080648093C00010E2B7
:10EF90001093C6008091C00086FFFCCF8091C00016
:10EFA00080648093C0008BBEF3012791C65DDE4F65
:10EFB0002883CA52D140A22EBB24CC24DD2408943D
:10EFC000611C711C811C911C8BBEF3018791282E42
:10EFD0003324442455240894611C711C811C911C09
:10EFE0008BBEF3013791C55DDE4F3883CB52D140E4
:10EFF0000894611C711C811C911C8BBEF30147910C
:10F00000C45DDE4F4883CC52D140ADEFEA2EAFEF66
:10F01000FA2EAFEF0A2FAFEF1A2F6E0C7F1C801E57
:10F02000911E142D032DF22CEE24EA0CFB1C0C1D5A
:10F030001D1D0F940DF220E22093C6008091C000A8
:10F0400086FFFCCF8091C00080648093C000C65DC5
:10F05000DE4F8881CA52D1400F940DF230E23093D6
:10F06000C6008091C00086FFFCCF8091C000806404
:10F070008093C000C45DDE4F8881CC52D1400F9494
:10F080000DF240E24093C6008091C00086FFFCCFA5
:10F090008091C00080648093C000C55DDE4F888190
:10F0A000CB52D1400F940DF250E25093C6008091A4
:10F0B000C00086FFFCCF8091C00080648093C000B8
:10F0C0008FEFE8168FEFF80680E0080780E018075A
:10F0D00031F484E092EE60E00F94C2F1DFC0D80119
:10F0E000C7018070907CA070B0708050904CA040A0
:10F0F000B040D1F52FEF3FE340E050E0E222F322B1
:10F1000004231523CA5DDE4FA880B980CA80DB8046
:10F11000C652D140AE0CBF1CC01ED11EAA0CBB1CD7
:10F12000CC1CDD1C8EE092EE60E00F94C2F1BB2798
:10F13000A12F902F8F2D0F940DF28E2D0F940DF285
:10F1400030E23093C6008091C00086FFFCCF8091F2
:10F15000C00080648093C0004EE34093C60080915D
:10F16000C00086FFFCCF87C08EE09EEFA0E0B0E03D
:10F17000E822F9220A231B239CE0E91694E9F90608
:10F1800090E0090790E0190709F088C0C45DDE4FE0
:10F19000A881CC52D140EA2EFF2400E010E0102FCD
:10F1A0000F2DFE2CEE24C55DDE4FB881CB52D14031
:10F1B000EB0EF11C011D111DD601C501817090706F
:10F1C000A070B070DC0199278827E80EF91E0A1F8D
:10F1D0001B1F20EF30E040E050E0A222B322C42207
:10F1E000D52241E1AA0CBB1CCC1CDD1C4A95D1F7F1
:10F1F000EA0CFB1C0C1D1D1D81E090E0A0E0B0E0BE
:10F20000282239224A225B2235E1220C331C441C7D
:10F21000551C3A95D1F7E20CF31C041D151D57013E
:10F220006801AA0CBB1CCC1CDD1C85E192EE60E0E1
:10F230000F94C2F1C801AA27BB270F940DF2BB2778
:10F24000A12F902F8F2D0F940DF28E2D0F940DF274
:10F2500090E29093C6008091C00086FFFCCF809121
:10F26000C00080648093C000AEE3A093C60080918C
:10F27000C00086FFFCCF8091C00080648093C000F6
:10F28000C601AA27BB270F940DF2BB27AD2D9C2DDD
:10F290008B2D0F940DF28A2D0F940DF20F94DCF14B
:10F2A000CC5DDE4FE881F981C452D140F99709F471
:10F2B0004DCBF4E0EF2EF12C012D112D6E0C7F1CA7
:10F2C000801E911EF2CD83E093EE62E00F94F5F183
:10F2D0008AE192EE60E00F94C2F18091C00087FF56
:10F2E000FCCF1091C6001F751093C6008091C0001E
:10F2F00086FFFCCF8091C00080648093C0000F9493
:10F30000DCF1812F81548A3108F036C1163409F4BA
:10F3100095C0173490F4133409F44EC0143430F40B
:10F320001134F1F0123409F01DC130C0143409F465
:10F3300059C0153409F016C16BC01A3409F4C4C0A1
:10F340001B3438F4173409F48FC0183409F00AC19B
:10F35000A1C01B3409F4D2C01C3409F003C1E8C0B9
:10F360008FEF81B90DC082B1809582B980E090E0C5
:10F37000E0EDF7E03197F1F70196883C9105C1F790
:10F380008091C00087FFEFCF12B8EFC08FEF84B934
:10F390000DC085B1809585B980E090E0E0EDF7E0A3
:10F3A0003197F1F70196883C9105C1F78091C00033
:10F3B00087FFEFCF15B8D9C08FEF87B90DC088B1DF
:10F3C000809588B980E090E0E0EDF7E03197F1F7C3
:10F3D0000196883C9105C1F78091C00087FFEFCF6F
:10F3E00018B8C3C08FEF8AB90DC08BB180958BB9A7
:10F3F00080E090E0E0EDF7E03197F1F70196883C8E
:10F400009105C1F78091C00087FFEFCF1BB8ADC059
:10F410008FEF8DB90DC08EB180958EB980E090E0F0
:10F42000E0EDF7E03197F1F70196883C9105C1F7DF
:10F430008091C00087FFEFCF1EB897C08FEF80BBD1
:10F440000DC081B3809581BB80E090E0E0EDF7E0F6
:10F450003197F1F70196883C9105C1F78091C00082
:10F4600087FFEFCF11BA81C08FEF83BB0DC084B38C
:10F47000809584BB80E090E0E0EDF7E03197F1F714
:10F480000196883C9105C1F78091C00087FFEFCFBE
:10F4900014BA6BC08FEF809301010FC080910201FD
:10F4A00080958093020180E090E0E0EDF7E03197F5
:10F4B000F1F70196883C9105C1F78091C00087FF64
:10F4C000EDCF1092020151C08FEF809304010FC065
:10F4D0008091050180958093050180E090E0E0ED4A
:10F4E000F7E03197F1F70196883C9105C1F78091DB
:10F4F000C00087FFEDCF1092050137C08FEF8093DA
:10F5000007010FC08091080180958093080180E079
:10F5100090E0E0EDF7E03197F1F70196883C910536
:10F52000C1F78091C00087FFEDCF109208011DC088
:10F530008FEF80930A010FC080910B01809580931B
:10F540000B0180E090E0E0EDF7E03197F1F70196F4
:10F55000883C9105C1F78091C00087FFEDCF1092E4
:10F560000B0103C085E292EEEEC98091C00087FFD7
:10F57000FCCF8091C600EAC988E392EEE4C98CE131
:10F5800091EEE1C988249924933011F1943028F444
:10F59000913089F09230B8F408C0953061F195301F
:10F5A000F0F0963009F048C043C02B3109F042C951
:10F5B00091E06BE13FC96227C15DDE4F2883CF52E6
:10F5C000D14092E037C9B22FA0E0622793E032C960
:10F5D000822F90E0A82BB92B622794E02BC92E3004
:10F5E00009F039C3622795E0C05DDE4F19821882A9
:10F5F000C053D1401FC9E1E0F0E0EC0FFD1FC05D3A
:10F60000DE4F08811981C053D140E00FF11F2083E4
:10F610000F5F1F4FC05DDE4F19830883C053D14079
:10F6200062270A171B0709F005C9D80196E002C92D
:10F63000261709F010C303C0973009F0FBC87724E0
:10F640009981933109F412C19431C8F4963009F4C8
:10F65000D8C0973050F4923009F406C1933009F4C1
:10F660006DC0913009F059C253C0913109F477C08F
:10F67000923108F0BBC0903109F04FC2F5C098310B
:10F6800009F487C0993150F4953109F4EFC09531F0
:10F6900008F4C6C1963109F040C2C2C19A3109F4DA
:10F6A0006CC09A3108F491C09B3109F45BC09D3164
:10F6B00009F033C29D81903359F48F81882311F46E
:10F6C0009EE11CC0813011F091E018C098E916C08D
:10F6D000892F807591F0903539F4E0E0F0E089E011
:10F6E0008093570094910AC0983539F4E3E0F0E034
:10F6F00089E080935700949101C090E01A821B82A8
:10F700008D818C831D829E831F8227E030E009C299
:10F710001A8288E08B8381E48C8386E58D8382E581
:10F720008E8389E48F8383E5888780E589878FE5E9
:10F730008A8782E38B872BE030E0F3C18A818139AD
:10F7400041F0823941F0803911F48FE005C080E04A
:10F7500003C082E001C08AE01A828B8344C0772410
:10F76000739482C08D81882311F48EE12CC0813086
:10F7700011F081E028C088E926C01A82E1E0F0E0BB
:10F7800089E08093570084918B831C8224E030E0D1
:10F79000C8C18B81803589F48C81883039F4E2E0EE
:10F7A000F0E089E08093570084910DC0E0E0F0E044
:10F7B00089E080935700849106C0E3E0F0E089E09F
:10F7C0008093570084911A82DFCF8D81836C99E0FA
:10F7D000E1E0F0E0082E90935700E89507B600FCB2
:10F7E000FDCF1A821B8223E030E09BC180EC8A832C
:10F7F000CE5CDE4F188219821A821B82C253D1401E
:10F800008EC18A8190E0A0E0B0E0582F44273327D2
:10F8100022278B8190E0A0E0B0E0DC0199278827C7
:10F82000282B392B4A2B5B2B8D8190E0A0E0B0E098
:10F83000282B392B4A2B5B2B8C8190E0A0E0B0E089
:10F84000BA2FA92F982F8827282B392B4A2B5B2BCF
:10F85000220F331F441F551FC05EDE4F288339839C
:10F860004A835B83C052D1401A8259C13A81C95C34
:10F87000DE4F3883C753D140CA5CDE4F1882C6536F
:10F88000D1408B81C82EDD24CA5CDE4F488159816E
:10F89000C653D140C42AD52A933109F082C0CE5C28
:10F8A000DE4F88819981AA81BB81C253D1408050AB
:10F8B000904CA340B04030F583E0CE5CDE4FE88052
:10F8C000F9800A811B81C253D140F70100935B008C
:10F8D00080935700E89507B600FCFDCFCE5CDE4F65
:10F8E000088119812A813B81C253D14000501F4FAA
:10F8F0002F4F3F4FCE5CDE4F088319832A833B8313
:10F90000C253D140C05EDE4F488159816A817B81FC
:10F91000C052D140DE011B9631E08C9111962C91A2
:10F9200011971296C75CDE4F2883C953D140C85C3B
:10F93000DE4F1882C853D14090E0C85CDE4FE881AA
:10F94000F981C853D1408E2B9F2B0C01FA01609393
:10F950005B0030935700E89511244E5F5F4F6F4F67
:10F960007F4F0EEFE02E0FEFF02ECE0CDF1CC114F8
:10F97000D10499F685E0C05EDE4F088119812A81A5
:10F980003B81C052D140F80120935B008093570027
:10F99000E89507B600FCFDCF81E180935700E8951C
:10F9A00035C0C05EDE4F88819981AA81BB81C0527B
:10F9B000D140B695A795979587957C018601ABE0D8
:10F9C000AA2EB12CAC0EBD1E0BC0D5016D915D01F0
:10F9D000C7010F947FFE0894E11CF11C01501040F8
:10F9E0000115110591F7A60160E070E0440F551F65
:10F9F000661F771FC05EDE4FE880F9800A811B8199
:10FA0000C052D1404E0D5F1D601F711F1A82C05E33
:10FA1000DE4F488359836A837B83C052D1407FC0C5
:10FA2000FA80C55CDE4FF882CB53D140C65CDE4F16
:10FA30001882CA53D1408B81C82EDD24C65CDE4FAC
:10FA400008811981CA53D140C02AD12A1A828981DA
:10FA5000BE016D5F7F4F843121F59601C05EDE4FA0
:10FA6000E880F9800A811B81C052D1400BBFF701A9
:10FA700087919691DB018C9311969C936E5F7F4FDB
:10FA8000D801C7010296A11DB11DC05EDE4F88835B
:10FA90009983AA83BB83C052D14022503040F1F6F3
:10FAA00036C0C05EDE4F288139814A815B81C052F9
:10FAB000D1400894C108D108760100E010E0089414
:10FAC000C11CD11C0894E11CF11C011D111DE20E8A
:10FAD000F31E041F151F21BDBB27A52F942F832FB5
:10FAE00082BD2F5F3F4F4F4F5F4FF89A80B5DB01CC
:10FAF0008D93BD012E153F054007510761F7C05E8C
:10FB0000DE4F288339834A835B83C052D1409601FC
:10FB10002D5F3F4FFB01108204C080EC8A8322E0FE
:10FB200030E08BE18093C6008091C00086FFFCCF5F
:10FB30008091C00080648093C000C15DDE4FF88179
:10FB4000CF52D140F093C6008091C00086FFFCCF19
:10FB50008091C00080648093C000432F3093C60022
:10FB60008091C00086FFFCCF8091C00080648093AC
:10FB7000C000922F2093C6008091C00086FFFCCF6A
:10FB80008091C00080648093C0008EE08093C600A6
:10FB90008091C00086FFFCCF8091C000806480937C
:10FBA000C00065E1C15DDE4FE880CF52D1406E25D7
:10FBB00069276427FE01319610C090819093C6009A
:10FBC0008091C00086FFFCCF31968091C000806498
:10FBD0008093C0006927215030402115310569F715
:10FBE0006093C6008091C00086FFFCCF8091C0006A
:10FBF00080648093C00085B1805885B9772081F4F6
:10FC0000C15DDE4F0881CF52D1400F5FC15DDE4F35
:10FC10000883CF52D14090E0A0E0B0E00D941AF4F8
:10FC200027982F9880E090E020ED37E0F901319798
:10FC3000F1F7019684369105C9F700008091C00064
:10FC40008D7F8093C00081E180935700E895EE2777
:10FC5000FF270994FFCF90E00D941AF497FB092E2B
:10FC600007260AD077FD04D02ED006D000201AF443
:10FC7000709561957F4F0895F6F7909581959F4F08
:10FC80000895A1E21A2EAA1BBB1BFD010DC0AA1FDD
:10FC9000BB1FEE1FFF1FA217B307E407F50720F0F5
:10FCA000A21BB30BE40BF50B661F771F881F991F70
:10FCB0001A9469F760957095809590959B01AC01B9
:10FCC000BD01CF010895AA1BBB1B51E107C0AA1FAC
:10FCD000BB1FA617B70710F0A61BB70B881F991FED
:10FCE0005A95A9F780959095BC01CD010895F99991
:10FCF000FECF92BD81BDF89A992780B50895262F31
:10FD0000F999FECF1FBA92BD81BD20BD0FB6F89400
:0EFD1000FA9AF99A0FBE01960895F894FFCF63
:00000001FF
