:100000000C943B010C946C010C946C010C946C01ED
:100010000C946C010C946C010C946C010C946C01AC
:100020000C946C010C946C010C946C010C946C019C
:100030000C946C010C946C010C946C010C946C018C
:100040000C946C010C942C060C946C010C946C01B7
:100050000C946C010C946C010C946C010C9458057C
:100060000C946C010C946C010C946C010C946C015C
:100070000C946C010C946C010C946C010C946C014C
:100080000C94FE050C946C010C946C010C946C01A6
:100090000C9422050C94F8040C946C010C946C01E3
:1000A0000C946C010C946C010C94D0050C946C01B4
:1000B0000C946C010C946C010C946C010C94A205D2
:1000C0000C946C010C946C010C946C010C946C01FC
:1000D0000C946C010C946C010C946C010C946C01EC
:1000E0000C946C010C9439030C94F8020C940A03E0
:1000F0000C9489020C9421030C94FE020C94EF01E1
:100100000C949B030C94E1010C945A060C94250367
:100110000C9406030C9491010C94CD010C942F03C4
:100120000C9413030C9433030C9402030C941D03DE
:100130000C94BE010C943D030C9427020C94DB0339
:100140000C9417030C9438030C946A030C940D035D
:100150000C942B0300002100240027002A002D000E
:100160003000330001010000040107010A01000012
:100170002200250028002B002E003100340002014F
:100180000000050108010B010000200023002600EB
:1001900029002C002F00320000010000030106019D
:1001A00009010505050507050808080802020202FD
:1001B0000A0A080804040404010101010101010103
:1001C0000303030303030303040707070C0C0C0CCE
:1001D0000C0C0C0C020202020606060606060606B7
:1001E0000B0B0B0B0B0B0B0B010210202008081044
:1001F0002040102040800201020108040201010297
:10020000040810204080804020100804020180046F
:1002100002018040201008040201080402010102CA
:1002200004081020408001020408102040800000D3
:100230000A0B02090C0D0E08070304010000000060
:1002400000000000000000000000000000000000AE
:10025000000000000000000000001211100000006B
:10026000000000000000000000000000000000008E
:10027000000000005A0611241FBECFEFD1E2DEBFFE
:10028000CDBF00E00CBF12E0A0E0B2E0E0EAF2E196
:1002900000E00BBF02C007900D92A833B107D9F759
:1002A00023E0A8E3B2E001C01D92A63EB207E1F749
:1002B00011E0CBE3D1E000E006C021970109802FD7
:1002C000FE010E944609CA33D10780E00807A9F75A
:1002D0000E94E8060C944E090C94000096E0899F59
:1002E000D0011124A958BC4F90967C936E935F97D0
:1002F00091E091969C939197E091E403F091E5034E
:100300009091E303992339F0309751F0811108C09F
:10031000809193031994309719F05C968C91FACFE1
:100320000895AF92BF92CF92DF92EF92FF920F9318
:100330001F93CF93DF936C017B018B01040F151F7B
:10034000EB015E01AE18BF08C017D10759F06991E3
:10035000D601ED91FC910190F081E02DC601199537
:10036000892B79F7C501DF91CF911F910F91FF90F4
:10037000EF90DF90CF90BF90AF900895FC01538D28
:10038000448D252F30E0842F90E0821B930B54176F
:1003900010F0CF96089501970895FC01918D828DFC
:1003A000981761F0A28DAE0FBF2FB11D5D968C9195
:1003B000928D9F5F9F73928F90E008958FEF9FEFD4
:1003C0000895FC01918D828D981731F0828DE80F90
:1003D000F11D858D90E008958FEF9FEF0895FC014A
:1003E000918D228D892F90E0805C9F4F821B910917
:1003F0008F73992708958AED92E00E94EF0121E022
:10040000892B09F420E0822F0895FC01A48DA80F08
:10041000B92FB11DA35ABF4F2C91848D90E0019646
:100420008F739927848FA689B7892C93A089B18966
:100430008C91837080648C93938D848D981306C007
:100440000288F389E02D80818F7D80830895EF926B
:10045000FF920F931F93CF93DF93EC0181E0888F7E
:100460009B8D8C8D98131AC0E889F989808185FF4E
:1004700015C09FB7F894EE89FF896083E889F989F0
:1004800080818370806480839FBF81E090E0DF91F2
:10049000CF911F910F91FF90EF900895F62E0B8D45
:1004A00010E00F5F1F4F0F731127E02E8C8D8E1100
:1004B0000CC00FB607FCFACFE889F989808185FF67
:1004C000F5CFCE010E940502F1CFEB8DEC0FFD2F91
:1004D000F11DE35AFF4FF0829FB7F8940B8FEA8922
:1004E000FB8980818062CFCFCF93DF936AE08AED72
:1004F00092E00E942702EC0142E050E065E372E0E6
:100500008AED92E00E9491018C0F9D1FDF91CF91A7
:100510000895CF93DF93EC01888D8823B9F0AA89E1
:10052000BB89E889F9898C9185FD03C0808186FDAE
:100530000DC00FB607FCF7CF8C9185FFF2CF8081FD
:1005400085FFEDCFCE010E940502E9CFDF91CF916B
:10055000089580E090E0892B49F080E090E0892BBD
:1005600029F00E94000081110E94000080E090E0CC
:10057000892B29F00E94FB0181110E94000080E07C
:1005800090E0892B49F080E090E0892B29F00E94CF
:10059000000081110E94000080E090E0892B49F06A
:1005A00080E090E0892B29F00E94000081110C94DA
:1005B000000008958150823108F05AC0E82FF0E021
:1005C0008827EA51FD4F8F4F0C94460906030A0312
:1005D000F802FE02020338030D03130317031D0381
:1005E000210325032B032F033803330339033D0372
:1005F000809180008F7780938000089580918000A3
:100600008F7DF9CF80918000877FF5CF84B58F777C
:1006100084BD089584B58F7DFBCF8091B0008F7726
:100620008093B00008958091B0008F7DF9CF8091C4
:1006300090008F77809390000895809190008F7D37
:10064000F9CF80919000877FF5CF8091A0008F77C0
:100650008093A00008958091A0008F7DF9CF8091B4
:10066000A000877FF5CF809120018F7780932001B4
:100670000895809120018F7DF9CF80912001877F9F
:10068000F5CFCF93DF93282F30E0F901E25DFD4FE6
:100690008491F901E851FE4FD491F901EE55FE4FD6
:1006A000C491CC23A1F081110E94DA02EC2FF0E07A
:1006B000EE0FFF1FE857FE4FA591B491EC91ED238B
:1006C00081E090E009F480E0DF91CF91089580E02F
:1006D00090E0FACF862F0C9441031F93CF93DF93C2
:1006E000282F30E0F901E25DFD4F8491F901E851D6
:1006F000FE4FD491F901EE55FE4FC491CC23A9F0E1
:10070000162F81110E94DA02EC2FF0E0EE0FFF1F8E
:10071000E259FE4FA591B4918FB7F894EC91111165
:1007200008C0D095DE23DC938FBFDF91CF911F915E
:100730000895DE2BF8CF862F642F0C946D03CF9392
:10074000DF9390E0FC01E851FE4F24918E559E4FBF
:10075000FC0184918823C9F090E0880F991FFC0167
:10076000EC5AFE4FA591B491FC01E259FE4FC591A0
:10077000D49161110DC09FB7F8948C91209582237C
:100780008C938881282328839FBFDF91CF91089580
:10079000623051F49FB7F8943C91822F8095832367
:1007A0008C93E8812E2BEFCF8FB7F894EC912E2B02
:1007B0002C938FBFEACF862F642F0C949F033FB7F3
:1007C000F8948091D1029091D202A091D302B0917D
:1007D000D40226B5A89B05C02F3F19F00196A11D94
:1007E000B11D3FBFBA2FA92F982F8827BC01CD017B
:1007F000620F711D811D911D42E0660F771F881FDA
:10080000991F4A95D1F708958F929F92AF92BF9208
:10081000CF92DF92EF92FF920E94DF034B015C01C7
:1008200080EDC82E87E0D82EE12CF12C0E94DF034A
:10083000681979098A099B09683E73408105910509
:10084000A8F321E0C21AD108E108F10888EE880E69
:1008500083E0981EA11CB11CC114D104E104F10471
:1008600029F7FF90EF90DF90CF90BF90AF909F90CF
:100870008F9008952FB7F8946091CD027091CE02B9
:100880008091CF029091D0022FBF08950F931F93B4
:10089000CF93DF93C82FD62F86E0C89FF001112495
:1008A000E958FC4F11A2878D90A181309105F1F09C
:1008B00058F082309105F1F1039709F440C0DF91BF
:1008C000CF911F910F9108956623C9F361E070E005
:1008D0008C2F0E946E010E943A046093CF037093A4
:1008E000D0038093D1039093D203E9CF0E943A04BE
:1008F0000091CF031091D0032091D1033091D20306
:10090000AB01BC01401B510B620B730B8091E103E7
:100910009091E203B0E0A0E084179507A607B7071F
:1009200048F462E070E08C2FDF91CF911F910F911E
:100930000C946E0163E070E0D111C1CFF4CF70E090
:1009400060E0F1CFCF93DF93DB01EA01FC01E853D4
:10095000FD4F40815CE0589F9001599F300D11245C
:1009600047FF1CC011961C921E9280818F5F80836E
:100970008081A901480F511D87FD5A9557FF03C07B
:1009800080818C30ACF08D919C91119704968034CD
:100990009C4938F18D919C91049625C08081A901D4
:1009A000480F511D87FD5A9557FFDFCF8081DDCF5E
:1009B0008D919C914081240F311D47FD3A95D901BD
:1009C000AA0FBB1FA20FB31FA85CBD4F11962D919C
:1009D0003C91820F931F998388838081DF91CF910F
:1009E000089580E49CE9998388838FEF8083F6CF14
:1009F0001F920F920FB60F9211240BB60F922F93E6
:100A00003F934F935F936F937F938F939F93AF9396
:100A1000BF93EF93FF938AED92E00E940502FF914E
:100A2000EF91BF91AF919F918F917F916F915F9166
:100A30004F913F912F910F900BBE0F900FBE0F90D3
:100A40001F9018951F920F920FB60F9211240BB69C
:100A50000F922F938F939F93EF93FF93E091EA026E
:100A6000F091EB028081E091F002F091F10282FDC1
:100A70001DC090818091F3028F5F8F732091F402EB
:100A8000821741F0E091F302F0E0E652FD4F958FBE
:100A90008093F302FF91EF919F918F912F910F908F
:100AA0000BBE0F900FBE0F901F9018958081F2CF54
:100AB0001F920F920FB60F9211242F933F938F9393
:100AC0009F93AF93BF938091CD029091CE02A0915E
:100AD000CF02B091D0023091CC0223E0230F2D370A
:100AE00058F50196A11DB11D2093CC028093CD0233
:100AF0009093CE02A093CF02B093D0028091D10206
:100B00009091D202A091D302B091D4020196A11D7E
:100B1000B11D8093D1029093D202A093D302B093DF
:100B2000D402BF91AF919F918F913F912F910F90E0
:100B30000FBE0F901F90189526E8230F0296A11D57
:100B4000B11DD2CF1F920F920FB60F9211240BB688
:100B50000F922F933F934F935F936F937F938F9356
:100B60009F93AF93BF93EF93FF9348E251E064E20A
:100B700071E090E080E00E94A204FF91EF91BF91AC
:100B8000AF919F918F917F916F915F914F913F9125
:100B90002F910F900BBE0F900FBE0F901F901895C6
:100BA0001F920F920FB60F9211240BB60F922F9334
:100BB0003F934F935F936F937F938F939F93AF93E5
:100BC000BF93EF93FF9348EA50E064EA70E083E05C
:100BD00090E00E94A204FF91EF91BF91AF919F918D
:100BE0008F917F916F915F914F913F912F910F90D6
:100BF0000BBE0F900FBE0F901F9018951F920F9273
:100C00000FB60F9211240BB60F922F933F934F9371
:100C10005F936F937F938F939F93AF93BF93EF9364
:100C2000FF9348E950E064E970E082E090E00E94C0
:100C3000A204FF91EF91BF91AF919F918F917F910E
:100C40006F915F914F913F912F910F900BBE0F903D
:100C50000FBE0F901F9018951F920F920FB60F9214
:100C600011240BB60F922F933F934F935F936F9383
:100C70007F938F939F93AF93BF93EF93FF9348E836
:100C800050E064E870E081E090E00E94A204FF91EF
:100C9000EF91BF91AF919F918F917F916F915F91F4
:100CA0004F913F912F910F900BBE0F900FBE0F9061
:100CB0001F9018951092DD021092DC0288EE93E0EE
:100CC000A0E0B0E08093DE029093DF02A093E00208
:100CD000B093E1028DE192E09093DB028093DA021F
:100CE0008DEC90E09093E7028093E6028CEC90E02C
:100CF0009093E9028093E80288EC90E09093EB02F5
:100D00008093EA0289EC90E09093ED028093EC02EC
:100D10008AEC90E09093EF028093EE028EEC90E0EC
:100D20009093F1028093F0021092F3021092F40279
:100D30001092F5021092F6021092790310927D0340
:100D400010927C0310927E038FE292E090937803DE
:100D500080937703E3E9F3E0108214821382158213
:100D6000369683E0EF3CF807B9F783E092E0909382
:100D7000DA038093D90380E092E09093DC038093C0
:100D8000DB0384E08093DD0383E08093DE0387E070
:100D900092E09093D8038093D7038AE090E09093F9
:100DA000E0038093DF0384EF91E09093E20380936C
:100DB000E1031092E5031092E4031092D303109222
:100DC000D4031092D5031092D6031092E303089532
:100DD000789484B5826084BD84B5816084BD85B516
:100DE000826085BD85B5816085BD80916E00816022
:100DF00080936E00109281008091810082608093C8
:100E000081008091810081608093810080918000C9
:100E10008160809380008091B10084608093B100F4
:100E20008091B00081608093B000809191008260D9
:100E300080939100809191008160809391008091D6
:100E400090008160809390008091A10082608093E7
:100E5000A1008091A10081608093A1008091A000F9
:100E600081608093A00080912101826080932101A4
:100E70008091210181608093210180912001816016
:100E80008093200180917A00846080937A00809121
:100E90007A00826080937A0080917A0081608093EA
:100EA0007A0080917A00806880937A001092C10065
:100EB000E091EA02F091EB0282E08083E091E602A9
:100EC000F091E7021082E091E802F091E9028FECE4
:100ED00080831092F202E091EE02F091EF0286E040
:100EE0008083E091EC02F091ED028081806180834B
:100EF000E091EC02F091ED02808188608083E091C6
:100F0000EC02F091ED02808180688083E091EC0238
:100F1000F091ED0280818F7D808361E084E00E940A
:100F20009F0361E089E00E949F0361E085E00E94E9
:100F30009F0334E6C32ED12CE12CF12C812C912C73
:100F4000540183948091D8029091D90206970CF0B5
:100F50003FC181E08093E3030E943A040091D303F0
:100F60001091D4032091D5033091D603AB01BC017D
:100F7000401B510B620B730B8091DF039091E003D8
:100F8000B0E0A0E084179507A607B70708F006C1F0
:100F9000C0E08091DD03C81760F4E091D903F091BF
:100FA000DA03EC0FF11D62E080810E949F03CF5FA6
:100FB000F0CF712C8091DE03781608F05FC0072D0A
:100FC00010E0E091DB03F091DC03E00FF11F61E042
:100FD00080810E949F03E091DB03F091DC03E00F2E
:100FE000F11F60E080810E946D03D501C401072CD0
:100FF00004C0880F991FAA1FBB1F0A94D2F71C01B7
:101000002C0140945094612C8091DD036816F8F413
:10101000C62DD0E0E091D903F091DA03EC0FFD1F6B
:1010200080810E9441032496CC0FDD1FC958DC4FFC
:10103000892B41F488819981822993299983888316
:101040006394E2CF8881998184219521F7CFE09143
:10105000DB03F091DC03E00FF11F61E080810E946F
:101060006D038091DB039091DC03080F191F60E092
:10107000F80180810E949F0373949CCFC7E7D3E05F
:10108000FE01878D90A1892B31F4148E8FEF9FEF95
:10109000968F858F11A2369693E0E33BF90789F787
:1010A00000E08091DD0310E0081708F052C0602EC8
:1010B000712C660C771CF301E158FC4F3F01209125
:1010C000DE03121708F043C0F30160817181012E25
:1010D00002C0769567950A94E2F7029F9001112469
:1010E000210F311DE7E7F3E080E0458D568D241791
:1010F000350709F4A7C08F5F36968A30B1F760FFD5
:1011000024C0E7E7F3E090E080E0448D411118C08F
:10111000E091D703F091D803E20FF31F608146E01E
:10112000489FF001499FF00D1124E958FC4F648F4E
:10113000368F258F10A2178E61E00E94460405C0ED
:10114000019636968A30910501F71F5FB8CF0F5F81
:10115000A8CF89A18111182F269683E0C33BD80719
:10116000C1F70E943A046093D3037093D403809331
:10117000D5039093D603112389F080919803882397
:1011800069F08091960390919703019739F46091EB
:101190009303611106C00E94A902D4CE1092E3030A
:1011A000FACFC091D802D091D902FE01ED5EFD4F79
:1011B0008081861719F081E08093D7028AED92E052
:1011C0000E9427022196D093D902C093D802E3CF80
:1011D0008091D702882369F1C091D502D091D602BF
:1011E000C230D105D4F461E089E00E946D03109211
:1011F000D9021092D8021092D7022196D093D6022B
:10120000C093D5020E9474020E94040460E089E049
:101210000E946D0360E084E009C00E943A04A701C7
:1012200096010E942409622F617085E00E946D037F
:10123000B2CF1092D6021092D50261E084E00E94F3
:101240006D03E0CF617079CFA1E21A2EAA1BBB1B00
:10125000FD010DC0AA1FBB1FEE1FFF1FA217B30782
:10126000E407F50720F0A21BB30BE40BF50B661F98
:10127000771F881F991F1A9469F76095709580955C
:1012800090959B01AC01BD01CF010895EE0FFF1FAA
:10129000881F8BBF0790F691E02D1994F894FFCF2B
:1012A00031333517191B1D31323334353637383960
:1012B0002A302332303231313100000000270291D0
:1012C00001BE018902EF01CD01E10100000000DB58
:0812D000039B036A030D0A00F1
:00000001FF
