:100000000C940A010C942B010C942B010C942B01E1
:100010000C942B010C942B010C942B010C942B01B0
:100020000C942B010C942B010C942B010C942B01A0
:100030000C942B010C942B010C942B010C942B0190
:100040000C942B010C94E3020C942B010C942B01C7
:100050000C942B010C942B010C942B010C940F028B
:100060000C942B010C942B010C942B010C942B0160
:100070000C942B010C942B010C942B010C942B0150
:100080000C94B5020C942B010C942B010C942B01B5
:100090000C942B010C942B010C942B010C942B0130
:1000A0000C942B010C942B010C9487020C942B01C3
:1000B0000C942B010C942B010C942B010C945902E1
:1000C0000C942B010C942B010C942B010C942B0100
:1000D0000C942B010C942B010C942B010C942B01F0
:1000E0000C942B010C947C010C9497010C949B01B3
:1000F0000C9483010C948D010C94A9010C9474014F
:100100000C9462010C9489010C94B3010C94A1012C
:100110000C94A5010C9480010C9478010C94AF010F
:100120000C945D010C94930100002200250028002E
:100130002B002E00310034000201000005010801EF
:100140000B0105050505070508080808020202025B
:100150000A0A080804040404010101010101010163
:100160000303030303030303040707070C0C0C0C2E
:100170000C0C0C0C02020202060606060606060617
:100180000B0B0B0B0B0B0B0B0102102020080810A4
:1001900020401020408002010201080402010102F7
:1001A00004081020408080402010080402018004D0
:1001B000020180402010080402010804020101022B
:1001C0000408102040800102040810204080000034
:1001D0000A0B02090C0D0E080703040100000000C1
:1001E000000000000000000000000000000000000F
:1001F00000000000000000000000121110000000CC
:1002000000000000000000000000000000000000EE
:100210000000000011241FBECFEFD1E2DEBFCDBF32
:1002200000E00CBF12E0A0E0B2E0E4E2F7E000E0A2
:100230000BBF02C007900D92A030B107D9F722E0A2
:10024000A0E0B2E001C01D92AD39B207E1F70E9413
:1002500011030C9490030C940000282F30E0F90156
:10026000E253FE4F9491F901E857FE4F44912E5B03
:100270003E4FF9012491222309F435C0992311F14D
:1002800091509231F8F4E92FF0E08827E55BFE4FBA
:100290008F4F0C9488037C0180015D01740178010B
:1002A0006201830189018D01930197019B01A101E5
:1002B000A5016201A901AF01B301809180008F7790
:1002C00080938000E22FF0E0EE0FFF1FE85DFE4F0D
:1002D000A591B4918FB7F894EC91611148C0409505
:1002E0004E234C938FBF0895809180008F7DE8CF7F
:1002F00080918000877FE4CF84B58F7784BDE2CF83
:1003000084B58F7DFBCF8091B0008F778093B00054
:10031000D9CF8091B0008F7DF9CF809190008F77F9
:1003200080939000CFCF809190008F7DF9CF809106
:100330009000877FF5CF8091A0008F778093A000F9
:10034000C1CF8091A0008F7DF9CF8091A000877FE1
:10035000F5CF809120018F7780932001B3CF8091DA
:1003600020018F7DF9CF80912001877FF5CF4E2B23
:10037000B8CFCF93DF93DB01EA01FC01E057FD4FDB
:1003800040815CE0589F9001599F300D112447FF38
:100390001CC011961C921E9280818F5F8083808189
:1003A000A901480F511D87FD5A9557FF03C0808151
:1003B0008C30ACF08D919C911197049680349C49BF
:1003C00038F18D919C91049625C08081A901480F38
:1003D000511D87FD5A9557FFDFCF8081DDCF8D916D
:1003E0009C914081240F311D47FD3A95D901AA0FF8
:1003F000BB1FA20FB31FA050BE4F11962D913C9171
:10040000820F931F998388838081DF91CF91089514
:1004100080E49CE9998388838FEF8083F6CF1F92D5
:100420000F920FB60F9211242F933F938F939F93A8
:10043000AF93BF938091990290919A02A0919B02F1
:10044000B0919C023091980223E0230F2D3758F58C
:100450000196A11DB11D209398028093990290935B
:100460009A02A0939B02B0939C0280919402909177
:100470009502A0919602B09197020196A11DB11D1F
:100480008093940290939502A0939602B093970262
:10049000BF91AF919F918F913F912F910F900FBE80
:1004A0000F901F90189526E8230F0296A11DB11DED
:1004B000D2CF1F920F920FB60F9211240BB60F924C
:1004C0002F933F934F935F936F937F938F939F935C
:1004D000AF93BF93EF93FF9348E251E064E271E082
:1004E00090E080E00E94B901FF91EF91BF91AF9140
:1004F0009F918F917F916F915F914F913F912F913C
:100500000F900BBE0F900FBE0F901F9018951F926B
:100510000F920FB60F9211240BB60F922F933F93A9
:100520004F935F936F937F938F939F93AF93BF93FB
:10053000EF93FF9348EA50E064EA70E083E090E0D4
:100540000E94B901FF91EF91BF91AF919F918F915F
:100550007F916F915F914F913F912F910F900BBEC3
:100560000F900FBE0F901F9018951F920F920FB60D
:100570000F9211240BB60F922F933F934F935F93DB
:100580006F937F938F939F93AF93BF93EF93FF935B
:1005900048E950E064E970E082E090E00E94B9012F
:1005A000FF91EF91BF91AF919F918F917F916F914B
:1005B0005F914F913F912F910F900BBE0F900FBE07
:1005C0000F901F9018951F920F920FB60F92112443
:1005D0000BB60F922F933F934F935F936F937F933D
:1005E0008F939F93AF93BF93EF93FF9348E850E0AF
:1005F00064E870E081E090E00E94B901FF91EF9122
:10060000BF91AF919F918F917F916F915F914F912A
:100610003F912F910F900BBE0F900FBE0F901F9028
:100620001895789484B5826084BD84B5816084BD5A
:1006300085B5826085BD85B5816085BD80916E0080
:10064000816080936E0010928100809181008260B1
:1006500080938100809181008160809381008091EE
:1006600080008160809380008091B10084608093DD
:10067000B1008091B00081608093B00080919100C2
:1006800082608093910080919100816080939100BD
:10069000809190008160809390008091A1008260A1
:1006A0008093A1008091A10081608093A10080913E
:1006B000A00081608093A0008091210182608093DE
:1006C000210180912101816080932101809120018D
:1006D00081608093200180917A00846080937A0009
:1006E00080917A00826080937A0080917A008160A4
:1006F00080937A0080917A00806880937A001092CB
:10070000C100C0E0D0E02097F1F30E940000FBCFD1
:10071000EE0FFF1F881F8BBF0790F691E02D1994F5
:04072000F894FFCF7B
:00000001FF
