:100000000C9441010C9472010C9472010C947201D5
:100010000C9472010C9472010C9472010C94720194
:100020000C9472010C9472010C9472010C94720184
:100030000C9472010C9472010C9472010C94720174
:100040000C9472010C9462080C9472010C9472016D
:100050000C9472010C9472010C9472010C948E0732
:100060000C9472010C9472010C9472010C94720144
:100070000C9472010C9472010C9472010C94720134
:100080000C9434080C9472010C9472010C9472015B
:100090000C9458070C942E070C9472010C94720166
:1000A0000C9472010C9472010C9406080C94720169
:1000B0000C9472010C9472010C9472010C94D80788
:1000C0000C9472010C9472010C9472010C947201E4
:1000D0000C9472010C9472010C9472010C947201D4
:1000E0000C9472010C94A6030C9480030C947A0374
:1000F0000C94D7030C949C030C9408040C94710288
:100100000C94AA030C9440020C9463020C94A90270
:100110000C9413020C94C5050C94C6050C9490081D
:100120000C9465030C946B030C9448040C94920398
:100130000C948E030C9498030C9473030C9428076E
:100140000C948A030C94A5030C94F6020C946F0390
:100150000C9477030C944F020C9484030C94A0032A
:1001600000002100240027002A002D003000330069
:1001700001010000040107010A010000220025001E
:1001800028002B002E003100340002010000050180
:1001900008010B01000020002300260029002C008C
:1001A0002F003200000100000301060109010505CE
:1001B0000505070508080808020202020A0A0808DD
:1001C000040404040101010101010101030303030B
:1001D00003030303040707070C0C0C0C0C0C0C0C9A
:1001E0000202020206060606060606060B0B0B0BAB
:1001F0000B0B0B0B010210202008081020401020D0
:1002000040800201020108040201010204081020DA
:1002100040808040201008040201800402018040D8
:100220002010080402010804020101020408102041
:100230004080010204081020408000000A0B0209DF
:100240000C0D0E0807030401000000000000000070
:10025000000000000000000000000000000000009E
:10026000000000000000121110000000000000005B
:10027000000000000000000000000000000000007E
:10028000900811241FBECFEFD1E2DEBFCDBF00E04A
:100290000CBF12E0A0E0B2E0EEE6FAE100E00BBF36
:1002A00002C007900D92A038B107D9F724E0A0E86A
:1002B000B2E001C01D92AD34B207E1F711E0C1E434
:1002C000D1E000E006C021970109802FFE010E94C5
:1002D0002D0DC034D10780E00807A9F70E946409FA
:1002E0000C94350D0C94000096E0899FD0011124E8
:1002F000A552BC4F90967C936E935F9791E0919638
:100300009C939197E0914804F0914904909147049F
:10031000992339F0309751F0811108C08091F7038B
:100320001994309719F05C968C91FACF0895CF927A
:10033000DF92EF92FF92DC01A03282E0B807D4F5A1
:10034000A53BB10514F0A4EBB0E040914B0428E8C4
:1003500030E0241B310947FD3395220F331F220F54
:10036000331F6901330FEE08FF0840914C0428E564
:1003700032E0241B310947FD3395220F331F220F32
:10038000331F032E000C440B550B2C193D094E094D
:100390005F09B7FF02C0B0E0A0E00E94E80C24EBC8
:1003A00030E040E050E00E94BE0CC20ED31EE41EBE
:1003B000F51ED601E0914A04E03380F520914B040C
:1003C00088E890E0821B910927FD9395880F991F7B
:1003D000880F991FA817B90784F020914C0488E56D
:1003E00092E0821B910927FD9395880F991F880F32
:1003F000991FA817B9070CF4CD010297880F991F10
:100400004FB7F8942E2F30E0F901EE0FFF1FE20FE7
:10041000F31FEE5CFC4F928381834FBFFF90EF9000
:10042000DF90CF900895AF92BF92CF92DF92EF927C
:10043000FF920F931F93CF93DF936C017B018B018E
:10044000040F151FEB015E01AE18BF08C017D107DE
:1004500059F06991D601ED91FC910190F081E02D68
:10046000C6011995892B79F7C501DF91CF911F91AD
:100470000F91FF90EF90DF90CF90BF90AF900895D5
:10048000FC01538D448D252F30E0842F90E0821B9A
:10049000930B541710F0CF96089501970895FC011F
:1004A000918D828D981761F0A28DAE0FBF2FB11D77
:1004B0005D968C91928D9F5F9F73928F90E00895CF
:1004C0008FEF9FEF0895FC01918D828D981731F089
:1004D000828DE80FF11D858D90E008958FEF9FEFDD
:1004E0000895FC01918D228D892F90E0805C9F4FB3
:1004F000821B91098F739927089585E992E00E94E4
:10050000710221E0892B09F420E0822F0895FC017B
:10051000A48DA80FB92FB11DA35ABF4F2C91848D64
:1005200090E001968F739927848FA689B7892C93C1
:10053000A089B1898C91837080648C93938D848D14
:10054000981306C00288F389E02D80818F7D808317
:100550000895EF92FF920F931F93CF93DF93EC01D7
:1005600081E0888F9B8D8C8D98131AC0E889F9895A
:10057000808185FF15C09FB7F894EE89FF8960835D
:10058000E889F98980818370806480839FBF81E0DE
:1005900090E0DF91CF911F910F91FF90EF90089520
:1005A000F62E0B8D10E00F5F1F4F0F731127E02EFB
:1005B0008C8D8E110CC00FB607FCFACFE889F98933
:1005C000808185FFF5CFCE010E948702F1CFEB8DB0
:1005D000EC0FFD2FF11DE35AFF4FF0829FB7F89407
:1005E0000B8FEA89FB8980818062CFCFCF93DF9325
:1005F000EC01888D8823B9F0AA89BB89E889F9893B
:100600008C9185FD03C0808186FD0DC00FB607FC6F
:10061000F7CF8C9185FFF2CF808185FFEDCFCE01A2
:100620000E948702E9CFDF91CF91089580E090E0AA
:10063000892B49F080E090E0892B29F00E9400008E
:1006400081110E94000080E090E0892B29F00E9437
:100650007D0281110E94000080E090E0892B49F02A
:1006600080E090E0892B29F00E94000081110E9417
:10067000000080E090E0892B49F080E090E0892B39
:1006800029F00E94000081110C940000089581500F
:10069000823108F05AC0E82FF0E08827ED5AFC4F6D
:1006A0008F4F0C942D0D7303770365036B036F035A
:1006B000A5037A03800384038A038E0392039803BD
:1006C0009C03A503A003A603AA03809180008F7753
:1006D000809380000895809180008F7DF9CF809174
:1006E0008000877FF5CF84B58F7784BD089584B56A
:1006F0008F7DFBCF8091B0008F778093B0000895FD
:100700008091B0008F7DF9CF809190008F7780939A
:1007100090000895809190008F7DF9CF8091900096
:10072000877FF5CF8091A0008F778093A0000895F8
:100730008091A0008F7DF9CF8091A000877FF5CFB9
:10074000809120018F77809320010895809120016E
:100750008F7DF9CF80912001877FF5CFCF93DF93F5
:10076000282F30E0F901E65CFD4F8491F901EC504F
:10077000FE4FD491F901E255FE4FC491CC23A1F074
:1007800081110E944703EC2FF0E0EE0FFF1FEC56A3
:10079000FE4FA591B491EC91ED2381E090E009F436
:1007A00080E0DF91CF91089580E090E0FACF862F2E
:1007B0000C94AE031F93CF93DF93282F30E0F90101
:1007C000E65CFD4F8491F901EC50FE4FD491F901A4
:1007D000E255FE4FC491CC23A9F0162F81110E943F
:1007E0004703EC2FF0E0EE0FFF1FE658FE4FA591F8
:1007F000B4918FB7F894EC91111108C0D095DE2315
:10080000DC938FBFDF91CF911F910895DE2BF8CF3E
:10081000862F642F0C94DA03CF93DF9390E0FC01D2
:10082000EC50FE4F249182559E4FFC018491882309
:10083000C9F090E0880F991FFC01E05AFE4FA59186
:10084000B491FC01E658FE4FC591D49161110DC0E1
:100850009FB7F8948C91209582238C9388812823CC
:1008600028839FBFDF91CF910895623051F49FB7E5
:10087000F8943C91822F809583238C93E8812E2BD2
:10088000EFCF8FB7F894EC912E2B2C938FBFEACF3C
:10089000862F642F0C940C043FB7F8948091890242
:1008A00090918A02A0918B02B0918C0226B5A89BF0
:1008B00005C02F3F19F00196A11DB11D3FBFBA2FF2
:1008C000A92F982F8827BC01CD01620F711D811DB2
:1008D000911D42E0660F771F881F991F4A95D1F737
:1008E00008958F929F92AF92BF92CF92DF92EF9234
:1008F000FF924B015C010E944C046B017C010E9441
:100900004C046C197D098E099F09683E734081056E
:100910009105A8F321E0821A9108A108B10888EE98
:10092000C80E83E0D81EE11CF11C81149104A104BF
:10093000B10429F7FF90EF90DF90CF90BF90AF9078
:100940009F908F9008952FB7F894609185027091D1
:10095000860280918702909188022FBF08950F939D
:100960001F93CF93DF93C82FD62F86E0C89FF00147
:100970001124E552FC4F11A2878D90A18130910581
:10098000F1F058F082309105F1F1039709F440C07D
:10099000DF91CF911F910F9108956623C9F361E014
:1009A00070E08C2F0E9474010E94A30460933304B2
:1009B000709334048093350490933604E9CF0E94F9
:1009C000A304009133041091340420913504309134
:1009D0003604AB01BC01401B510B620B730B8091C1
:1009E000450490914604B0E0A0E084179507A6075F
:1009F000B70748F462E070E08C2FDF91CF911F9130
:100A00000F910C94740163E070E0D111C1CFF4CF69
:100A100070E060E0F1CFAF92BF92CF92DF92EF92A1
:100A2000FF920F931F93CF93DF936B017A01EC0139
:100A3000C058DD4F28813CE0389F8001399F100D60
:100A40001124A090C203B12C27FF1FC0FB0111820B
:100A5000108288818F5F888388819801280F311DDB
:100A600087FD3A95F6012A153B051CF488818C30E8
:100A7000C4F180819181049680349C4908F473C04C
:100A8000F60180819181049670C088819801280FB9
:100A9000311D87FD3A952A153B05DCF68881A801B2
:100AA000480F511D87FD5A95FA01EE0FFF1FE40F05
:100AB000F51FEE5CFC4F808186FFCBCF8881F8016B
:100AC000E80FF11D87FDFA95CF01EE0FFF1FE80F2C
:100AD000F91FEE5CFC4F808160E08F730E94DA03A7
:100AE000B8CF808191812881A801420F511D27FD37
:100AF0005A959A01FA01EE0FFF1FE20FF31FEE5C09
:100B0000FC4F21813281820F931FF70191838083F3
:100B100088819801280F311D87FD3A95F901EE0F64
:100B2000FF1FE20FF31FEE5CFC4F808186FF22C0A7
:100B30008881080F111D87FD1A95F801EE0FFF1F20
:100B4000E00FF11FEE5CFC4F808161E08F73DF915D
:100B5000CF911F910F91FF90EF90DF90CF90BF90BA
:100B6000AF900C94DA0380E49CE9F70191838083D1
:100B70008FEF8883DF91CF911F910F91FF90EF90BE
:100B8000DF90CF90BF90AF900895089590E080E0FF
:100B90000895FB0101900020E9F73197AF01461B52
:100BA000570BDC01ED91FC910280F381E02D19944B
:100BB000CF93DF93EC0160E08E810E94DA0361E065
:100BC0008E810E94DA0360E08E810E94DA038BE856
:100BD00091E00197F1F7DF91CF910895CF92DF92E5
:100BE000EF92FF920F931F93CF93DF936C017C01E1
:100BF00087E0E80EF11CD0E0C0E0062F10E0B8015D
:100C00000C2E02C0759567950A94E2F76170F701A2
:100C100081917F010E94DA032196C430D10579F7D2
:100C2000C601DF91CF911F910F91FF90EF90DF9060
:100C3000CF900C94D805CF92DF92EF92FF920F9352
:100C40001F93CF93DF93EC01F62E642F8C810E94CB
:100C5000DA038D818F3F19F060E00E94DA030F2DD7
:100C600010E08F8584FF25C06E0187E0C80ED11C7F
:100C7000F12CE12CB8010E2C02C0759567950A94F1
:100C8000E2F76170F60181916F010E94DA03FFEFD4
:100C9000EF1AFF0A88E0E816F10461F7CE01DF9150
:100CA000CF911F910F91FF90EF90DF90CF900C9418
:100CB000D805B80184E0759567958A95E1F7CE016E
:100CC0000E94EE056F2DCE01DF91CF911F910F9104
:100CD000FF90EF90DF90CF900C94EE0540E0682FEE
:100CE00083EC93E00C941B06CF93DF93823029F4BE
:100CF0009091D20398609093D2038093D603109280
:100D0000D70380E48093D80380E18093D90380E502
:100D10008093DA0361E08091C7030E940C04809104
:100D2000C8038F3F19F061E00E940C0461E08091DC
:100D3000C9030E940C04C3ECD3E09E01235C334042
:100D40008091D20384FD0BC084E090E021962817A7
:100D5000390744F461E08E810E940C04EECF88E0F4
:100D600090E0F4CF8BE39DE00197F1F760E0809194
:100D7000C7030E94DA0360E08091C9030E94DA038E
:100D80008091C8038F3F19F060E00E94DA038091E0
:100D9000D20384FD39C063E083EC93E00E94EE054A
:100DA000CBE4D6E4CE010197F1F763E083EC93E066
:100DB0000E94EE052197F1F763E083EC93E00E9437
:100DC000EE0583E592E00197F1F762E083EC93E0B2
:100DD0000E94EE058091D20380620E946E0684E03C
:100DE0008093D3038CE00E946E0681E00E946E0621
:100DF0008BE39FE10197F1F782E08093D40386E0D3
:100E0000DF91CF910C946E0680620E946E068BE497
:100E100096E40197F1F78091D20380620E946E06FA
:100E200083E592E00197F1F78091D20380620E94FE
:100E30006E06D0CF9091D603891710F08FEF890FEF
:100E4000E82FF0E0ED53FC4F848980680C946E0627
:100E500041E00E941B0681E090E008951F920F92EE
:100E60000FB60F9211240BB60F922F933F934F930F
:100E70005F936F937F938F939F93AF93BF93EF9302
:100E8000FF9385E992E00E948702FF91EF91BF9165
:100E9000AF919F918F917F916F915F914F913F9112
:100EA0002F910F900BBE0F900FBE0F901F901895B3
:100EB0001F920F920FB60F9211240BB60F922F9321
:100EC0008F939F93EF93FF93E091A502F091A60279
:100ED0008081E091AB02F091AC0282FD1DC0908157
:100EE0008091AE028F5F8F732091AF02821741F025
:100EF000E091AE02F0E0EB56FD4F958F8093AE028D
:100F0000FF91EF919F918F912F910F900BBE0F90BA
:100F10000FBE0F901F9018958081F2CF1F920F92F5
:100F20000FB60F9211242F933F938F939F93AF93FC
:100F3000BF938091850290918602A0918702B09123
:100F400088023091840223E0230F2D3758F5019653
:100F5000A11DB11D20938402809385029093860287
:100F6000A0938702B09388028091890290918A02AF
:100F7000A0918B02B0918C020196A11DB11D8093AE
:100F8000890290938A02A0938B02B0938C02BF9146
:100F9000AF919F918F913F912F910F900FBE0F9026
:100FA0001F90189526E8230F0296A11DB11DD2CFE0
:100FB0001F920F920FB60F9211240BB60F922F9320
:100FC0003F934F935F936F937F938F939F93AF93D1
:100FD000BF93EF93FF9348E251E064E271E090E049
:100FE00080E00E940B05FF91EF91BF91AF919F911F
:100FF0008F917F916F915F914F913F912F910F90C2
:101000000BBE0F900FBE0F901F9018951F920F925E
:101010000FB60F9211240BB60F922F933F934F935D
:101020005F936F937F938F939F93AF93BF93EF9350
:10103000FF9348EA50E064EA70E083E090E00E94A9
:101040000B05FF91EF91BF91AF919F918F917F9190
:101050006F915F914F913F912F910F900BBE0F9029
:101060000FBE0F901F9018951F920F920FB60F9200
:1010700011240BB60F922F933F934F935F936F936F
:101080007F938F939F93AF93BF93EF93FF9348E921
:1010900050E064E970E082E090E00E940B05FF916F
:1010A000EF91BF91AF919F918F917F916F915F91E0
:1010B0004F913F912F910F900BBE0F900FBE0F904D
:1010C0001F9018951F920F920FB60F9211240BB616
:1010D0000F922F933F934F935F936F937F938F93D1
:1010E0009F93AF93BF93EF93FF9348E850E064E87A
:1010F00070E081E090E00E940B05FF91EF91BF91BD
:10110000AF919F918F917F916F915F914F913F919F
:101110002F910F900BBE0F900FBE0F901F90189540
:10112000109298021092970288EE93E0A0E0B0E04F
:101130008093990290939A02A0939B02B0939C0291
:101140008DE192E090939602809395028DEC90E071
:101150009093A2028093A1028CEC90E09093A40261
:101160008093A30288EC90E09093A6028093A5025E
:1011700089EC90E09093A8028093A7028AEC90E01B
:101180009093AA028093A9028EEC90E09093AC0217
:101190008093AB021092AE021092AF021092B00296
:1011A0001092B1028091C203803308F089C091E0AF
:1011B000980F9093C20380934A0490E0FC01EE0FD5
:1011C000FF1FE80FF91FEE5CFC4F88EB9BE092835A
:1011D00081831092DD031092E1031092E0031092DC
:1011E000E2038BE392E09093DC038093DB03E7EF71
:1011F000F3E01082148213821582369684E0E33382
:10120000F807B9F783E092E090933E0480933D04A1
:1012100080E092E09093400480933F0484E08093C8
:10122000410483E08093420487E092E090933C0481
:1012300080933B048AE090E09093440480934304BD
:1012400084EF91E090934604809345041092490402
:101250001092480410923704109238041092390406
:1012600010923A04109247041092C6031092C503DC
:101270008FE292E09093C4038093C3038DE0809348
:10128000C7038FEF8093C8038CE08093C90387E284
:101290008093CA0385E28093CB0383E28093CC03DF
:1012A00081E28093CD031092CE031092CF0310926F
:1012B000D0031092D1031092D20381E00C947406F3
:1012C0008FEF80934A0485CF789484B5826084BD83
:1012D00084B5816084BD85B5826085BD85B581603A
:1012E00085BD80916E00816080936E0010928100B8
:1012F0008091810082608093810080918100816073
:101300008093810080918000816080938000809133
:10131000B10084608093B1008091B00081608093BF
:10132000B000809191008260809391008091910043
:101330008160809391008091900081608093900003
:101340008091A10082608093A1008091A1008160C2
:101350008093A1008091A00081608093A000809183
:10136000210182608093210180912101816080931D
:1013700021018091200181608093200180917A0079
:10138000846080937A0080917A00826080937A00F2
:1013900080917A00816080937A0080917A008068E1
:1013A00080937A001092C100E091A502F091A6020C
:1013B00082E08083E091A102F091A2021082E0918C
:1013C000A302F091A4028FEC80831092AD02E09111
:1013D000A902F091AA0286E08083E091A702F09131
:1013E000A802808180618083E091A702F091A80229
:1013F000808188608083E091A702F091A8028081BB
:1014000080688083E091A702F091A80280818F7D9F
:10141000808361E084E00E940C0461E089E00E9426
:101420000C0461E085E00E940C0480914A04803342
:1014300008F052C061E08AE00E940C0480914A04E6
:10144000282F30E0F901EE0FFF1FE20FF31FEE5CD3
:10145000FC4F9081907C9A60908310924B04109284
:101460004C042CE0622F0E94210D829FB0011124B8
:1014700030E020E0AB01420F531FFA01EE0FFF1FD7
:10148000E40FF51FEE5CFC4F908196FD17C02F5FB7
:101490003F4F2C30310571F7813009F060C0109258
:1014A000800082E080938100109285001092840079
:1014B000B19A80916F00826080936F00E0914A043E
:1014C0008E2F90E0FC01EE0FFF1FE80FF91FEE5C7E
:1014D000FC4F80818064808382E00E94740644E631
:1014E000242E312C412C512C812C912C540183948D
:1014F000809193029091940206970CF06EC181E066
:10150000809347040E94A30400913704109138048B
:101510002091390430913A04AB01BC01401B510BBE
:10152000620B730B8091430490914404B0E0A0E0FF
:1015300084179507A607B70708F035C1C0E080916A
:101540004104C817C0F5E0913D04F0913E04EC0F52
:10155000F11D62E080810E940C04CF5FF0CF8230E9
:1015600061F4109290008093910010929500109277
:10157000940088BB80937100A1CF833069F41092EE
:10158000A00082E08093A1001092A5001092A40018
:1015900089BB8093720092CF811190CF109220016D
:1015A00082E08093210110922501109224018ABBD0
:1015B0008093730083CF712C80914204781608F0D9
:1015C0005FC0072D10E0E0913F04F0914004E00F70
:1015D000F11F61E080810E940C04E0913F04F091D2
:1015E0004004E00FF11F60E080810E94DA03D50122
:1015F000C401072C04C0880F991FAA1FBB1F0A949F
:10160000D2F76C017C01E094F094612C809141044C
:101610006816F8F4C62DD0E0E0913D04F0913E0448
:10162000EC0FFD1F80810E94AE032496CC0FDD1FBE
:10163000C552DC4F892B41F4888199818C299D29E1
:10164000998388836394E2CF888199818E219F2139
:10165000F7CFE0913F04F0914004E00FF11F61E00B
:1016600080810E94DA0380913F0490914004080F2A
:10167000191F60E0F80180810E940C0473949CCFD4
:101680000BED13E0E8018F8D98A1892B31F41C8EAE
:101690002FEF3FEF3E8F2D8F19A2269687E194E022
:1016A0008C179D0781F7F12C80914104F81608F002
:1016B00053C0E12C8F2D90E0880F991FFC01ED5154
:1016C000FC4F6F0180914204E81608F043C0F60118
:1016D000608171810E2C02C0769567950A94E2F7BD
:1016E000F89EA00111244E0D511DEBEDF3E080E0BA
:1016F000258D368D4217530709F43EC18F5F36960C
:101700008A30B1F760FF24C0EBEDF3E090E080E0B9
:10171000248D211118C0E0913B04F0913C04E40FAA
:10172000F51F608126E0289FF001299FF00D11240C
:10173000E552FC4F648F568F458F10A2178E61E0E3
:101740000E94AF0405C0019636968A30910501F7D4
:10175000E394B8CFF394A8CFF12CF80181A18111C3
:10176000F82E0A5F1F4F0C171D07B9F70E94A3043C
:1017700060933704709338048093390490933A044B
:10178000FF2089F08091FC03882369F08091FA039F
:101790009091FB03019739F46091F703611106C042
:1017A0000E941603A5CE10924704FACFC09193026F
:1017B000D0919402FE01ED5EFD4F8081861719F0F5
:1017C00081E08093920285E992E00E94A90221962D
:1017D000D0939402C0939302E3CF80919202882326
:1017E00009F465C080919002909191020297DCF516
:1017F00061E472E083EC93E00E94C90581E00E94FD
:101800001A076AE472E083EC93E00E94C90568EB72
:101810007BE080E090E00E94710480E00E941A0763
:101820001092940210929302109292028091900270
:1018300090919102019690939102809390026EE7AD
:1018400072E085E992E00E94C9056DE772E085E9E2
:1018500092E00E94C90581E00E946E068BE39FE141
:101860000197F1F79DCF0E94A304A20191010E946C
:10187000F00C622F617085E00E94DA0366E572E089
:1018800083EC93E00E94C90581E00E941A0760E69C
:1018900072E083EC93E00E94C90568EB7BE080E096
:1018A00090E00E94710480E00E941A07C8CF8091E6
:1018B0008F0281115CC06BE672E083EC93E00E94C2
:1018C000C90581E00E941A0768E772E083EC93E0A3
:1018D0000E94C90568EB7BE080E090E00E94710403
:1018E00080E00E941A0710928E0210928D02C09121
:1018F0008D02D0918E02CA35D1057CF4CE010E94B2
:10190000970162E370E080E090E00E94710421960C
:10191000D0938E02C0938D02EACF68EE73E080E030
:1019200090E00E9471042AE530E030938E0220930B
:101930008D02C0918D02D0918E02D7FD0FC0CE01D5
:101940000E94970162E370E080E090E00E947104E1
:101950002197D0938E02C0938D02EBCF68EE73E097
:1019600080E090E00E94710481E080938F021092E9
:1019700091021092900263CF6170E2CE052E97FB28
:101980001EF400940E94D50C57FD07D00E94F00C65
:1019900007FC03D04EF40C94D50C5095409530952F
:1019A00021953F4F4F4F5F4F0895909580957095CB
:1019B00061957F4F8F4F9F4F08950E94120DA59FF5
:1019C000900DB49F900DA49F800D911D112408953A
:1019D000B7FF0C94DD0C0E94DD0C821B930B089565
:1019E000A1E21A2EAA1BBB1BFD010DC0AA1FBB1F23
:1019F000EE1FFF1FA217B307E407F50720F0A21B95
:101A0000B30BE40BF50B661F771F881F991F1A9401
:101A100069F760957095809590959B01AC01BD012B
:101A2000CF010895A29FB001B39FC001A39F700D85
:101A3000811D1124911DB29F700D811D1124911DD6
:101A40000895991B79E004C0991F961708F0961B1A
:101A5000881F7A95C9F780950895EE0FFF1F881F9C
:0E1A60008BBF0790F691E02D1994F894FFCFFC
:101A6E0031333517191B1D3132333435363738398A
:101A7E002A302332303231313100000000A90213F6
:101A8E00024002F60271024F0263020000000028BB
:101A9E00071302C605C5050000000048040804D758
:101AAE00034552524F5220454E00434F4E54524121
:101ABE0053454E49410041434345534F204E4F003D
:101ACE004155544F52495A41444F004249454E5692
:101ADE00454E49444F20410043415341000D0A00F9
:00000001FF
