:100000000C943B010C946C010C946C010C946C01ED
:100010000C946C010C946C010C946C010C946C01AC
:100020000C946C010C946C010C946C010C946C019C
:100030000C946C010C946C010C946C010C946C018C
:100040000C946C010C94E9050C946C010C946C01FB
:100050000C946C010C946C010C946C010C941505BF
:100060000C946C010C946C010C946C010C946C015C
:100070000C946C010C946C010C946C010C946C014C
:100080000C94BB050C946C010C946C010C946C01E9
:100090000C94DF040C94B5040C946C010C946C016A
:1000A0000C946C010C946C010C948D050C946C01F7
:1000B0000C946C010C946C010C946C010C945F0515
:1000C0000C946C010C946C010C946C010C946C01FC
:1000D0000C946C010C946C010C946C010C946C01EC
:1000E0000C946C010C9465030C9497020C9401021F
:1000F0000C947C030C942E020C94F6030C94800355
:100100000C9436040C946E030C945D030C943D0225
:100110000C9451020C9494030C9493030C94780364
:100120000C9459030C9453030C9468030C946103CE
:100130000C94E4020C948E030C945F020C947203F2
:100140000C9417060C948A030C94C5030C94860334
:100150000C94980300002100240027002A002D00A1
:100160003000330001010000040107010A01000012
:100170002200250028002B002E003100340002014F
:100180000000050108010B010000200023002600EB
:1001900029002C002F00320000010000030106019D
:1001A00009010505050507050808080802020202FD
:1001B0000A0A080804040404010101010101010103
:1001C0000303030303030303040707070C0C0C0CCE
:1001D0000C0C0C0C020202020606060606060606B7
:1001E0000B0B0B0B0B0B0B0B010210202008081044
:1001F0002040102040800201020108040201010297
:10020000040810204080804020100804020180046F
:1002100002018040201008040201080402010102CA
:1002200004081020408001020408102040800000D3
:100230000A0B02090C0D0E08070304010000000060
:1002400000000000000000000000000000000000AE
:10025000000000000000000000001211100000006B
:10026000000000000000000000000000000000008E
:1002700000000000170611241FBECFEFD1E2DEBF41
:10028000CDBF00E00CBF12E0A0E0B2E0ECE0F2E194
:1002900000E00BBF02C007900D92A833B107D9F759
:1002A00023E0A8E3B2E001C01D92A43EB207E1F74B
:1002B00011E0CBE3D1E000E006C021970109802FD7
:1002C000FE010E94FC08CA33D10780E00807A9F7A5
:1002D0000E94A5060C9404090C94000096E0899FE6
:1002E000D0011124AB58BC4F90967C936E935F97CE
:1002F00091E091969C939197E091E203F091E30352
:100300009091E103992339F0309751F0811108C0A1
:10031000809191031994309719F05C968C91FACFE3
:100320000895CF92DF92EF92FF920F931F9396E082
:10033000899FF0011124EB58FC4F11A2278D30A1A9
:100340002130310551F178F02230310509F451C0E6
:100350002330310509F452C01F910F91FF90EF90A7
:10036000DF90CF9008956623B9F361E070E00E94BA
:100370006E012FB7F8948091D4029091D502A0918C
:10038000D602B091D7022FBF8093CD039093CE03B6
:10039000A093CF03B093D003DFCF9FB7F894C09062
:1003A000D402D090D502E090D602F090D7029FBF41
:1003B0000091CD031091CE032091CF033091D00353
:1003C000C01AD10AE20AF30A0091DF031091E00398
:1003D00030E020E00C151D052E053F0550F462E0CD
:1003E00070E01F910F91FF90EF90DF90CF900C94F1
:1003F0006E016111B1CF63E070E0F3CF70E060E0B7
:10040000F0CFAF92BF92CF92DF92EF92FF920F9315
:100410001F93CF93DF936C017B018B01040F151F9A
:10042000EB015E01AE18BF08C017D10759F0699102
:10043000D601ED91FC910190F081E02DC601199556
:10044000892B79F7C501DF91CF911F910F91FF9013
:10045000EF90DF90CF90BF90AF900895FC01538D47
:10046000448D252F30E0842F90E0821B930B54178E
:1004700010F0CF96089501970895FC01918D828D1B
:10048000981761F0A28DAE0FBF2FB11D5D968C91B4
:10049000928D9F5F9F73928F90E008958FEF9FEFF3
:1004A0000895FC01918D828D981731F0828DE80FAF
:1004B000F11D858D90E008958FEF9FEF0895FC0169
:1004C000918D228D892F90E0805C9F4F821B910936
:1004D0008F739927089588ED92E00E945F0221E0D2
:1004E000892B09F420E0822F0895FC01A48DA80F28
:1004F000B92FB11DA35ABF4F2C91848D90E0019666
:100500008F739927848FA689B7892C93A089B18985
:100510008C91837080648C93938D848D981306C026
:100520000288F389E02D80818F7D80830895EF928A
:10053000FF920F931F93CF93DF93EC0181E0888F9D
:100540009B8D8C8D98131AC0E889F989808185FF6D
:1005500015C09FB7F894EE89FF896083E889F9890F
:1005600080818370806480839FBF81E090E0DF9111
:10057000CF911F910F91FF90EF900895F62E0B8D64
:1005800010E00F5F1F4F0F731127E02E8C8D8E111F
:100590000CC00FB607FCFACFE889F989808185FF86
:1005A000F5CFCE010E947502F1CFEB8DEC0FFD2F40
:1005B000F11DE35AFF4FF0829FB7F8940B8FEA8941
:1005C000FB8980818062CFCFCF93DF93EC01888D50
:1005D0008823B9F0AA89BB89E889F9898C9185FDBE
:1005E00003C0808186FD0DC00FB607FCF7CF8C914C
:1005F00085FFF2CF808185FFEDCFCE010E9475028D
:10060000E9CFDF91CF91089580E090E0892B49F008
:1006100080E090E0892B29F00E94000081110E9467
:10062000000080E090E0892B29F00E946B0281118C
:100630000E94000080E090E0892B49F080E090E08B
:10064000892B29F00E94000081110E94000080E0A7
:1006500090E0892B49F080E090E0892B29F00E94FE
:10066000000081110C94000008958150823108F03F
:100670005AC0E82FF0E08827EF5BFC4F8F4F0C94B7
:10068000FC0861036503530359035D039303680387
:100690006E03720378037C03800386038A0393034B
:1006A0008E0394039803809180008F77809380005D
:1006B0000895809180008F7DF9CF80918000877FA1
:1006C000F5CF84B58F7784BD089584B58F7DFBCF3A
:1006D0008091B0008F778093B00008958091B00032
:1006E0008F7DF9CF809190008F778093900008954F
:1006F000809190008F7DF9CF80919000877FF5CF1A
:100700008091A0008F778093A00008958091A00031
:100710008F7DF9CF8091A000877FF5CF8091200158
:100720008F77809320010895809120018F7DF9CFEC
:1007300080912001877FF5CFCF93DF93282F30E082
:10074000F901E25DFD4F8491F901E851FE4FD4912A
:10075000F901EE55FE4FC491CC23A1F081110E9406
:100760003503EC2FF0E0EE0FFF1FE857FE4FA59189
:10077000B491EC91ED2381E090E009F480E0DF9109
:10078000CF91089580E090E0FACF862F0C949C03DF
:100790001F93CF93DF93282F30E0F901E25DFD4FE7
:1007A0008491F901E851FE4FD491F901EE55FE4FC5
:1007B000C491CC23A9F0162F81110E943503EC2F90
:1007C000F0E0EE0FFF1FE259FE4FA591B4918FB7F5
:1007D000F894EC91111108C0D095DE23DC938FBF03
:1007E000DF91CF911F910895DE2BF8CF862F642FD4
:1007F0000C94C803CF93DF9390E0FC01E851FE4FC7
:1008000024918E559E4FFC0184918823C9F090E07D
:10081000880F991FFC01EC5AFE4FA591B491FC0181
:10082000E259FE4FC591D49161110DC09FB7F89464
:100830008C91209582238C938881282328839FBFC5
:10084000DF91CF910895623051F49FB7F8943C91B5
:10085000822F809583238C93E8812E2BEFCF8FB747
:10086000F894EC912E2B2C938FBFEACF862F642F18
:100870000C94FA033FB7F8948091CD029091CE0288
:10088000A091CF02B091D00226B5A89B05C02F3F02
:1008900019F00196A11DB11D3FBFBA2FA92F982FA6
:1008A0008827BC01CD01620F711D811D911D42E0A1
:1008B000660F771F881F991F4A95D1F70895CF9328
:1008C000DF93DB01EA01FC01E853FD4F40815CE06E
:1008D000589F9001599F300D112447FF1CC011965D
:1008E0001C921E9280818F5F80838081A901480FB6
:1008F000511D87FD5A9557FF03C080818C30ACF0A5
:100900008D919C911197049680349C4938F18D917A
:100910009C91049625C08081A901480F511D87FD37
:100920005A9557FFDFCF8081DDCF8D919C9140811B
:10093000240F311D47FD3A95D901AA0FBB1FA20F05
:10094000B31FA85CBD4F11962D913C91820F931F50
:10095000998388838081DF91CF91089580E49CE919
:10096000998388838FEF8083F6CF1F920F920FB603
:100970000F9211240BB60F922F933F934F935F93D7
:100980006F937F938F939F93AF93BF93EF93FF9357
:1009900088ED92E00E947502FF91EF91BF91AF91B7
:1009A0009F918F917F916F915F914F913F912F9187
:1009B0000F900BBE0F900FBE0F901F9018951F92B7
:1009C0000F920FB60F9211240BB60F922F938F93A5
:1009D0009F93EF93FF93E091E802F091E902808109
:1009E000E091EE02F091EF0282FD1DC090818091B6
:1009F000F1028F5F8F732091F202821741F0E09134
:100A0000F102F0E0E852FD4F958F8093F102FF91E3
:100A1000EF919F918F912F910F900BBE0F900FBE72
:100A20000F901F9018958081F2CF1F920F920FB6F2
:100A30000F9211242F933F938F939F93AF93BF9364
:100A40008091D4029091D502A091D602B091D702A4
:100A50003091CC0223E0230F2D3758F50196A11DCC
:100A6000B11D2093CC028093D4029093D502A09321
:100A7000D602B093D7028091CD029091CE02A09180
:100A8000CF02B091D0020196A11DB11D8093CD027D
:100A90009093CE02A093CF02B093D002BF91AF91BA
:100AA0009F918F913F912F910F900FBE0F901F90AC
:100AB000189526E8230F0296A11DB11DD2CF1F92D3
:100AC0000F920FB60F9211240BB60F922F933F93F4
:100AD0004F935F936F937F938F939F93AF93BF9346
:100AE000EF93FF9348E251E064E271E090E080E030
:100AF0000E945F04FF91EF91BF91AF919F918F9101
:100B00007F916F915F914F913F912F910F900BBE0D
:100B10000F900FBE0F901F9018951F920F920FB657
:100B20000F9211240BB60F922F933F934F935F9325
:100B30006F937F938F939F93AF93BF93EF93FF93A5
:100B400048EA50E064EA70E083E090E00E945F04CD
:100B5000FF91EF91BF91AF919F918F917F916F9195
:100B60005F914F913F912F910F900BBE0F900FBE51
:100B70000F901F9018951F920F920FB60F9211248D
:100B80000BB60F922F933F934F935F936F937F9387
:100B90008F939F93AF93BF93EF93FF9348E950E0F8
:100BA00064E970E082E090E00E945F04FF91EF91C1
:100BB000BF91AF919F918F917F916F915F914F9175
:100BC0003F912F910F900BBE0F900FBE0F901F9073
:100BD00018951F920F920FB60F9211240BB60F9219
:100BE0002F933F934F935F936F937F938F939F9335
:100BF000AF93BF93EF93FF9348E850E064E870E051
:100C000081E090E00E945F04FF91EF91BF91AF916E
:100C10009F918F917F916F915F914F913F912F9114
:100C20000F900BBE0F900FBE0F901F901895109253
:100C3000DB021092DA0288EE93E0A0E0B0E080934D
:100C4000DC029093DD02A093DE02B093DF028DE11F
:100C500092E09093D9028093D8028DEC90E090932B
:100C6000E5028093E4028CEC90E09093E70280939D
:100C7000E60288EC90E09093E9028093E80289EC28
:100C800090E09093EB028093EA028AEC90E09093DC
:100C9000ED028093EC028EEC90E09093EF02809353
:100CA000EE021092F1021092F2021092F3021092F0
:100CB000F4021092770310927B0310927A03109241
:100CC0007C038FE292E09093760380937503E1E9D1
:100CD000F3E01082148213821582369683E0ED3C95
:100CE000F807B9F783E092E09093D8038093D70395
:100CF00080E092E09093DA038093D90384E08093BC
:100D0000DB0383E08093DC0387E092E09093D603DB
:100D10008093D5038AE090E09093DE038093DD0317
:100D200084EF91E09093E0038093DF031092E3035C
:100D30001092E2031092D1031092D2031092D303C7
:100D40001092D4031092E1030895789484B58260E0
:100D500084BD84B5816084BD85B5826085BD85B55F
:100D6000816085BD80916E00816080936E001092DD
:100D70008100809181008260809381008091810058
:100D800081608093810080918000816080938000E9
:100D90008091B10084608093B1008091B000816047
:100DA0008093B00080919100826080939100809147
:100DB0009100816080939100809190008160809388
:100DC00090008091A10082608093A1008091A10099
:100DD00081608093A1008091A00081608093A00039
:100DE00080912101826080932101809121018160A5
:100DF0008093210180912001816080932001809166
:100E00007A00846080937A0080917A008260809377
:100E10007A0080917A00816080937A0080917A00D4
:100E2000806880937A001092C100E091E802F0910E
:100E3000E90282E08083E091E402F091E502108211
:100E4000E091E602F091E7028FEC80831092F002CD
:100E5000E091EC02F091ED0286E08083E091EA02FD
:100E6000F091EB02808180618083E091EA02F09151
:100E7000EB02808188608083E091EA02F091EB02CE
:100E8000808180688083E091EA02F091EB028081AA
:100E90008F7D808361E084E00E94FA0361E089E055
:100EA0000E94FA03812C912C5401839446E0342E45
:100EB0008091D2029091D30206970CF05BC181E041
:100EC0008093E1038FB7F8944091D4025091D502FA
:100ED0006091D6027091D7028FBF8091D10390911B
:100EE000D203A091D303B091D403481B590B6A0BD2
:100EF0007B0B8091DD039091DE03B0E0A0E08417CE
:100F00009507A607B70708F010C1C0E08091DB0382
:100F1000C81760F4E091D703F091D803EC0FF11DEE
:100F200062E080810E94FA03CF5FF0CF512C809164
:100F3000DC03581608F05FC0052D10E0E091D903DE
:100F4000F091DA03E00FF11F61E080810E94FA0363
:100F5000E091D903F091DA03E00FF11F60E08081A6
:100F60000E94C803D501C401052C04C0880F991F35
:100F7000AA1FBB1F0A94D2F76C017C01E094F09485
:100F8000412C8091DB034816F8F4C42DD0E0E091A9
:100F9000D703F091D803EC0FFD1F80810E949C03C2
:100FA0002496CC0FDD1FCB58DC4F892B41F4888170
:100FB00099818C299D29998388834394E2CF8881E4
:100FC00099818E219F21F7CFE091D903F091DA0327
:100FD000E00FF11F61E080810E94C8038091D90376
:100FE0009091DA03080F191F60E0F80180810E94D8
:100FF000FA0353949CCF05E713E0E8018F8D98A185
:10100000892B31F41C8E8FEF9FEF9E8F8D8F19A24D
:10101000269693E0C13BD90789F7F12C8091DB0339
:10102000F81608F052C0E12CCF2CD12CCC0CDD1CD2
:10103000F601E358FC4F6F012091DC03E21608F043
:1010400042C0F601608171810E2C02C076956795D1
:101050000A94E2F7F29E900111242E0D311DE5E76E
:10106000F3E080E0458D568D2417350709F4C2C0A2
:101070008F5F36968A30B1F760FF23C0E5E7F3E073
:1010800090E080E0448D411117C0E091D503F091CC
:10109000D603E20FF31F4081389EF001399EF00D18
:1010A0001124EB58FC4F448F368F258F10A2178EDA
:1010B00061E00E94910105C0019636968A30910543
:1010C00009F7E394B9CFF394A9CF80E0F80191A197
:1010D0009111892F0A5F1F4FC017D107B9F79FB72A
:1010E000F8944091D4025091D5026091D60270914B
:1010F000D7029FBF4093D1035093D2036093D30391
:101100007093D403882389F080919603882369F033
:101110008091940390919503019739F46091910324
:10112000611106C00E940403C3CE1092E103FACFFE
:10113000E091D202F091D302ED5EFD4F80818617DF
:1011400019F081E08093D10288ED92E00E9497022D
:1011500042E050E065E372E088ED92E00E94010217
:101160008091D2029091D30201969093D302809302
:10117000D202D8CF8091D10261E08823B9F189E011
:101180000E94C8031092D3021092D2021092D10290
:101190000E943A042B013C0180EDC82E87E0D82E36
:1011A000E12CF12C0E943A0464197509860997090B
:1011B000683E734081059105A8F3F1E0CF1AD1088C
:1011C000E108F10828EE420E23E0521E611C711C5A
:1011D000C114D104E104F10429F760E089E00E9420
:1011E000C80360E084E00E94C8039CCF84E00E94B2
:1011F000C803CECF61705DCFEE0FFF1F881F8BBF7E
:0C1200000790F691E02D1994F894FFCFB0
:10120C0031333517191B1D313233343536373839F4
:10121C002A30233230323131310000000097020184
:10122C00022E02E4025F023D025102000000003671
:08123C0004F603C5030D0A00CE
:00000001FF
