:100000000C943B010C946C010C946C010C946C01ED
:100010000C946C010C946C010C946C010C946C01AC
:100020000C946C010C946C010C946C010C946C019C
:100030000C946C010C946C010C946C010C946C018C
:100040000C946C010C94F3060C946C010C946C01F0
:100050000C946C010C946C010C946C010C941F06B4
:100060000C946C010C946C010C946C010C946C015C
:100070000C946C010C946C010C946C010C946C014C
:100080000C94C5060C946C010C946C010C946C01DE
:100090000C94E9050C94BF050C946C010C946C0154
:1000A0000C946C010C946C010C9497060C946C01EC
:1000B0000C946C010C946C010C946C010C9469060A
:1000C0000C946C010C946C010C946C010C946C01FC
:1000D0000C946C010C946C010C946C010C946C01EC
:1000E0000C946C010C9449020C9492030C943A0207
:1000F0000C94D1030C948C030C94A3020C94A403D1
:100100000C94F0020C946D030C9471030C94020493
:100110000C9466070C947E030C940D020C946903F6
:100120000C946B020C9465030C94A0030C94840350
:100130000C945D020C949A030C9488030C947A033B
:100140000C945F030C9442040C9496030C949F034C
:100150000C94740300002100240027002A002D00C5
:100160003000330001010000040107010A01000012
:100170002200250028002B002E003100340002014F
:100180000000050108010B0100000A0B02090C0D1B
:100190000E0807030401000000000000000000003A
:1001A000000000000000000000000000000000004F
:1001B000000000001211100000000000000000000C
:1001C000000000000000000000000000000000002F
:1001D00020002300260029002C002F0032000001FF
:1001E00000000301060109010505050507050808CA
:1001F0000808020202020A0A0808040404040101B1
:1002000001010101010103030303030303030407C5
:1002100007070C0C0C0C0C0C0C0C0202020206065C
:100220000606060606060B0B0B0B0B0B0B0B01024F
:1002300010202008081020401020408002010201F8
:1002400008040201010204081020408080402010B0
:100250000804020180040201804020100804020109
:100260000804020101020408102040800102040871
:1002700010204080660711241FBECFEFD1E2DEBF01
:10028000CDBF00E00CBF12E0A0E0B2E0EEE2FAE188
:1002900000E00BBF02C007900D92A833B107D9F759
:1002A00023E0A8E3B2E001C01D92AD3EB207E1F742
:1002B00011E0CBE3D1E000E006C021970109802FD7
:1002C000FE010E940D0DCA33D10780E00807A9F78F
:1002D0000E940F080C94150D0C940000CF92DF9231
:1002E000EF92FF92DC01A03282E0B807D4F5A53B83
:1002F000B10514F0A4EBB0E04091EB0328E830E046
:10030000241B310947FD3395220F331F220F331F62
:100310006901330FEE08FF084091EC0328E532E055
:10032000241B310947FD3395220F331F220F331F42
:10033000032E000C440B550B2C193D094E095F0987
:10034000B7FF02C0B0E0A0E00E94970B24EB30E0C2
:1003500040E050E00E946D0BC20ED31EE41EF51E5D
:10036000D601E091EA03E03380F52091EB0388E8C1
:1003700090E0821B910927FD9395880F991F880FA4
:10038000991FA817B90784F02091EC0388E592E043
:10039000821B910927FD9395880F991F880F991F3C
:1003A000A817B9070CF4CD010297880F991F4FB712
:1003B000F8942E2F30E0F901EE0FFF1FE20FF31F2C
:1003C000E651FD4F928381834FBFFF90EF90DF9006
:1003D000CF90089596E0899FD0011124A558BC4F75
:1003E00090967C936E935F9791E091969C939197F2
:1003F000E091E803F091E9039091E703992339F044
:10040000309751F0811108C080919703199430976B
:1004100019F05C968C91FACF0895AF92BF92CF926B
:10042000DF92EF92FF920F931F93CF93DF936C01B4
:100430007B018B01040F151FEB015E01AE18BF0895
:10044000C017D10759F06991D601ED91FC91019047
:10045000F081E02DC6011995892B79F7C501DF914F
:10046000CF911F910F91FF90EF90DF90CF90BF90B1
:10047000AF900895FC01538D448D252F30E0842FDB
:1004800090E0821B930B541710F0CF9608950197BC
:100490000895FC01918D828D981761F0A28DAE0FA9
:1004A000BF2FB11D5D968C91928D9F5F9F73928F30
:1004B00090E008958FEF9FEF0895FC01918D828D5C
:1004C000981731F0828DE80FF11D858D90E0089529
:1004D0008FEF9FEF0895FC01918D228D892F90E081
:1004E000805C9F4F821B91098F73992708958DE43B
:1004F00092E00E946B0221E0892B09F420E0822F18
:100500000895FC01A48DA80FB92FB11DA35ABF4FA8
:100510002C91848D90E001968F739927848FA68902
:10052000B7892C93A089B1898C91837080648C9356
:10053000938D848D981306C00288F389E02D808105
:100540008F7D80830895EF92FF920F931F93CF9337
:10055000DF93EC0181E0888F9B8D8C8D98131AC0FE
:10056000E889F989808185FF15C09FB7F894EE89E5
:10057000FF896083E889F989808183708064808342
:100580009FBF81E090E0DF91CF911F910F91FF908D
:10059000EF900895F62E0B8D10E00F5F1F4F0F7335
:1005A0001127E02E8C8D8E110CC00FB607FCFACFF0
:1005B000E889F989808185FFF5CFCE010E9481020B
:1005C000F1CFEB8DEC0FFD2FF11DE35AFF4FF082C1
:1005D0009FB7F8940B8FEA89FB8980818062CFCF27
:1005E000CF93DF93EC01888D8823B9F0AA89BB896A
:1005F000E889F9898C9185FD03C0808186FD0DC055
:100600000FB607FCF7CF8C9185FFF2CF808185FF75
:10061000EDCFCE010E948102E9CFDF91CF91089505
:1006200080E090E0892B49F080E090E0892B29F070
:100630000E94000081110E94000080E090E0892B60
:1006400029F00E94770281110E94000080E090E072
:10065000892B49F080E090E0892B29F00E9400006E
:1006600081110E94000080E090E0892B49F080E039
:1006700090E0892B29F00E94000081110C94000069
:1006800008958150823108F05AC0E82FF0E08827A1
:10069000E35BFC4F8F4F0C940D0D6D0371035F03F3
:1006A000650369039F0374037A037E03840388034D
:1006B0008C03920396039F039A03A003A4038091E3
:1006C00080008F77809380000895809180008F7DD7
:1006D000F9CF80918000877FF5CF84B58F7784BD77
:1006E000089584B58F7DFBCF8091B0008F77809384
:1006F000B00008958091B0008F7DF9CF8091900077
:100700008F77809390000895809190008F7DF9CF2E
:1007100080919000877FF5CF8091A0008F778093A4
:10072000A00008958091A0008F7DF9CF8091A00056
:10073000877FF5CF809120018F77809320010895E6
:10074000809120018F7DF9CF80912001877FF5CFA7
:10075000CF93DF93282F30E0F901E857FE4F8491C3
:10076000F901E25DFD4FD491F901E851FE4FC491CA
:10077000CC23A1F081110E944103EC2FF0E0EE0F99
:10078000FF1FE253FE4FA591B491EC91ED2381E060
:1007900090E009F480E0DF91CF91089580E090E04F
:1007A000FACF862F0C94A8031F93CF93DF93282FA3
:1007B00030E0F901E857FE4F8491F901E25DFD4F09
:1007C000D491F901E851FE4FC491CC23A9F0162F22
:1007D00081110E944103EC2FF0E0EE0FFF1FE25960
:1007E000FE4FA591B4918FB7F894EC91111108C008
:1007F000D095DE23DC938FBFDF91CF911F910895B9
:10080000DE2BF8CF862F642F0C94D403CF93DF9385
:1008100090E0FC01E25DFD4F249188519E4FFC0168
:1008200084918823C9F090E0880F991FFC01EC5A4D
:10083000FE4FA591B491FC01E259FE4FC591D491B0
:1008400061110DC09FB7F8948C91209582238C93F1
:100850008881282328839FBFDF91CF91089562303C
:1008600051F49FB7F8943C91822F809583238C9309
:10087000E8812E2BEFCF8FB7F894EC912E2B2C9391
:100880008FBFEACF862F642F0C9406043FB7F894ED
:100890008091410290914202A0914302B0914402A2
:1008A00026B5A89B05C02F3F19F00196A11DB11DCB
:1008B0003FBFBA2FA92F982F8827BC01CD01620F07
:1008C000711D811D911D42E0660F771F881F991FC2
:1008D0004A95D1F708958F929F92AF92BF92CF928F
:1008E000DF92EF92FF924B015C010E9446046B0184
:1008F0007C010E9446046C197D098E099F09683E9F
:10090000734081059105A8F321E0821A9108A1089E
:10091000B10888EEC80E83E0D81EE11CF11C8114DA
:100920009104A104B10429F7FF90EF90DF90CF90DC
:10093000BF90AF909F908F9008952FB7F8946091DB
:100940003D0270913E0280913F02909140022FBF84
:1009500008950F931F93CF93DF93C82FD62F86E070
:10096000C89FF0011124E558FC4F11A2878D90A17A
:1009700081309105F1F058F082309105F1F1039743
:1009800009F440C0DF91CF911F910F910895662324
:10099000C9F361E070E08C2F0E94EA010E949D047F
:1009A0006093D3037093D4038093D5039093D603BD
:1009B000E9CF0E949D040091D3031091D4032091AC
:1009C000D5033091D603AB01BC01401B510B620B28
:1009D000730B8091E5039091E603B0E0A0E08417EB
:1009E0009507A607B70748F462E070E08C2FDF9107
:1009F000CF911F910F910C94EA0163E070E0D11147
:100A0000C1CFF4CF70E060E0F1CFAF92BF92CF9250
:100A1000DF92EF92FF920F931F93CF93DF936B01BF
:100A20007A01EC01C85CDD4F28813CE0389F8001F1
:100A3000399F100D1124A0907A03B12C27FF1FC0FD
:100A4000FB011182108288818F5F888388819801E1
:100A5000280F311D87FD3A95F6012A153B051CF438
:100A600088818C30C4F180819181049680349C49C6
:100A700008F473C0F60180819181049670C088816A
:100A80009801280F311D87FD3A952A153B05DCF6A4
:100A90008881A801480F511D87FD5A95FA01EE0F74
:100AA000FF1FE40FF51FE651FD4F808186FFCBCF7E
:100AB0008881F801E80FF11D87FDFA95CF01EE0F4F
:100AC000FF1FE80FF91FE651FD4F808160E08F7333
:100AD0000E94D403B8CF808191812881A801420F60
:100AE000511D27FD5A959A01FA01EE0FFF1FE20FE3
:100AF000F31FE651FD4F21813281820F931FF701D1
:100B00009183808388819801280F311D87FD3A9554
:100B1000F901EE0FFF1FE20FF31FE651FD4F808139
:100B200086FF22C08881080F111D87FD1A95F801E4
:100B3000EE0FFF1FE00FF11FE651FD4F808161E0D6
:100B40008F73DF91CF911F910F91FF90EF90DF9006
:100B5000CF90BF90AF900C94D40380E49CE9F70150
:100B6000918380838FEF8883DF91CF911F910F91C5
:100B7000FF90EF90DF90CF90BF90AF9008951F92BD
:100B80000F920FB60F9211240BB60F922F933F9333
:100B90004F935F936F937F938F939F93AF93BF9385
:100BA000EF93FF938DE492E00E948102FF91EF9119
:100BB000BF91AF919F918F917F916F915F914F9175
:100BC0003F912F910F900BBE0F900FBE0F901F9073
:100BD00018951F920F920FB60F9211240BB60F9219
:100BE0002F938F939F93EF93FF93E0915D02F0918A
:100BF0005E028081E0916302F091640282FD1DC07B
:100C00009081809166028F5F8F73209167028217B7
:100C100041F0E0916602F0E0E35BFD4F958F809339
:100C20006602FF91EF919F918F912F910F900BBED4
:100C30000F900FBE0F901F9018958081F2CF1F92DA
:100C40000F920FB60F9211242F933F938F939F9380
:100C5000AF93BF9380913D0290913E02A0913F02DD
:100C6000B091400230913C0223E0230F2D3758F51C
:100C70000196A11DB11D20933C0280933D029093EB
:100C80003E02A0933F02B0934002809141029091B6
:100C90004202A0914302B09144020196A11DB11DF0
:100CA0008093410290934202A0934302B093440286
:100CB000BF91AF919F918F913F912F910F900FBE58
:100CC0000F901F90189526E8230F0296A11DB11DC5
:100CD000D2CF1F920F920FB60F9211240BB60F9224
:100CE0002F933F934F935F936F937F938F939F9334
:100CF000AF93BF93EF93FF9348E251E064E271E05A
:100D000090E080E00E940505FF91EF91BF91AF91C7
:100D10009F918F917F916F915F914F913F912F9113
:100D20000F900BBE0F900FBE0F901F9018951F9243
:100D30000F920FB60F9211240BB60F922F933F9381
:100D40004F935F936F937F938F939F93AF93BF93D3
:100D5000EF93FF9348EA50E064EA70E083E090E0AC
:100D60000E940505FF91EF91BF91AF919F918F91E7
:100D70007F916F915F914F913F912F910F900BBE9B
:100D80000F900FBE0F901F9018951F920F920FB6E5
:100D90000F9211240BB60F922F933F934F935F93B3
:100DA0006F937F938F939F93AF93BF93EF93FF9333
:100DB00048E950E064E970E082E090E00E940505B7
:100DC000FF91EF91BF91AF919F918F917F916F9123
:100DD0005F914F913F912F910F900BBE0F900FBEDF
:100DE0000F901F9018951F920F920FB60F9211241B
:100DF0000BB60F922F933F934F935F936F937F9315
:100E00008F939F93AF93BF93EF93FF9348E850E086
:100E100064E870E081E090E00E940505FF91EF91A9
:100E2000BF91AF919F918F917F916F915F914F9102
:100E30003F912F910F900BBE0F900FBE0F901F9000
:100E40001895CF92DF92EF92FF920F931F93E82FA6
:100E5000F92F05C0015011092109310961F1908173
:100E600096239417B9F305C00150110921093109DE
:100E700011F1908196239413F7CFC12CD12CE12C42
:100E8000F12C0AC08FEFC81AD80AE80AF80A0C1524
:100E90001D052E053F0579F080818623841791F387
:100EA0006C2D7D2D8E2D9F2D1F910F91FF90EF901A
:100EB000DF90CF90089560E070E080E090E01F91B7
:100EC0000F91FF90EF90DF90CF9008951092500215
:100ED00010924F0288EE93E0A0E0B0E080935102C0
:100EE00090935202A0935302B09354028DE192E08A
:100EF00090934E0280934D028DEC90E090935A02B5
:100F0000809359028CEC90E090935C0280935B029A
:100F100088EC90E090935E0280935D0289EC90E013
:100F20009093600280935F028AEC90E0909362025B
:100F3000809361028EEC90E0909364028093630250
:100F40001092660210926702109268021092690273
:100F500080917A03803308F05EC091E0980F9093FF
:100F60007A038093EA0390E0FC01EE0FFF1FE80F85
:100F7000F91FE651FD4F88EB9BE09283818310922D
:100F80007D031092810310928003109282038FE2FE
:100F900092E090937C0380937B03E7E9F3E0108277
:100FA000148213821582369683E0E33DF807B9F781
:100FB00083E092E09093DE038093DD0380E092E093
:100FC0009093E0038093DF0384E08093E10383E068
:100FD0008093E20387E092E09093DC038093DB034D
:100FE0008AE090E09093E4038093E30384EF91E040
:100FF0009093E6038093E5031092E9031092E803CF
:101000001092D7031092D8031092D9031092DA03EA
:101010001092E70308958FEF8093EA03B0CF78949E
:1010200084B5826084BD84B5816084BD85B58260ED
:1010300085BD85B5816085BD80916E00816080939E
:101040006E00109281008091810082608093810007
:101050008091810081608093810080918000816017
:10106000809380008091B10084608093B100809172
:10107000B00081608093B000809191008260809385
:101080009100809191008160809391008091900007
:101090008160809390008091A10082608093A10084
:1010A0008091A10081608093A1008091A000816067
:1010B0008093A00080912101826080932101809122
:1010C00021018160809321018091200181608093C2
:1010D000200180917A00846080937A0080917A0068
:1010E000826080937A0080917A00816080937A0098
:1010F00080917A00806880937A001092C100E0911C
:101100005D02F0915E0282E08083E0915902F091ED
:101110005A021082E0915B02F0915C028FEC8083B6
:1011200010926502E0916102F091620286E0808394
:10113000E0915F02F0916002808180618083E091A4
:101140005F02F0916002808188608083E0915F029D
:10115000F0916002808180688083E0915F02F0916D
:10116000600280818F7D808361E084E00E940604BC
:1011700061E089E00E94060461E085E00E940604C7
:101180008091EA03803308F052C061E08AE00E9457
:1011900006048091EA03282F30E0F901EE0FFF1FCB
:1011A000E20FF31FE651FD4F9081907C9A6090838F
:1011B0001092EB031092EC032CE0622F0E94010DC1
:1011C000829FB001112430E020E0AB01420F531F99
:1011D000FA01EE0FFF1FE40FF51FE651FD4F90815E
:1011E00096FD17C02F5F3F4F2C30310571F78130CE
:1011F00009F0A6C01092800082E0809381001092D6
:10120000850010928400B19A80916F008260809373
:101210006F00E091EA038E2F90E0FC01EE0FFF1FBC
:10122000E80FF91FE651FD4F80818064808344E61A
:10123000242E312C412C512C812C912C540183943F
:1012400061E08BE00E94060460E08BE00E94D40322
:1012500083E090E00197F1F761E08BE00E94D40316
:1012600083E290E00197F1F760E08BE00E94D40305
:1012700060E08BE00E940604E9E3F2E06491E3EFB2
:10128000F1E08491E82FF0E0EE0FFF1FE253FE4FF4
:101290008591949100E412E42FE030E0462F0E9403
:1012A0002107611571058105910529F06F5F7F4F59
:1012B0008F4F9F4F9F700E94080C2EEE35E24DE835
:1012C0005CE30E946C0C0E94D00B673971050CF432
:1012D00058C180914B0290914C0206970CF06EC160
:1012E00081E08093E7030E949D040091D703109151
:1012F000D8032091D9033091DA03AB01BC01401B24
:10130000510B620B730B8091E3039091E403B0E007
:10131000A0E084179507A607B70708F035C1C0E01D
:101320008091E103C817C0F5E091DD03F091DE0381
:10133000EC0FF11D62E080810E940604CF5FF0CFC8
:10134000823061F410929000809391001092950089
:101350001092940088BB809371005BCF833069F456
:101360001092A00082E08093A1001092A50010923C
:10137000A40089BB809372004CCF81114ACF109298
:10138000200182E080932101109225011092240116
:101390008ABB809373003DCF712C8091E203781655
:1013A00008F05FC0072D10E0E091DF03F091E0034B
:1013B000E00FF11F61E080810E940604E091DF03ED
:1013C000F091E003E00FF11F60E080810E94D40300
:1013D000D501C401072C04C0880F991FAA1FBB1F89
:1013E0000A94D2F76C017C01E094F094612C809116
:1013F000E1036816F8F4C62DD0E0E091DD03F0912A
:10140000DE03EC0FFD1F80810E94A8032496CC0F01
:10141000DD1FC558DC4F892B41F4888199818C29C7
:101420009D29998388836394E2CF888199818E2155
:101430009F21F7CFE091DF03F091E003E00FF11F70
:1014400061E080810E94D4038091DF039091E003EA
:10145000080F191F60E0F80180810E940604739450
:101460009CCF0BE713E087EB93E0E8012F8D38A1C9
:10147000232B31F41C8E2FEF3FEF3E8F2D8F19A2BF
:1014800026968C179D0791F7F12C8091E103F816B1
:1014900008F053C0E12CCF2CD12CCC0CDD1CC601A4
:1014A0008D579C4F6C012091E203E21608F043C077
:1014B000F601608171810E2C02C0769567950A94C1
:1014C000E2F7F29E900111242E0D311DEBE7F3E0BF
:1014D00080E0458D568D2417350709F4FCC08F5FD9
:1014E00036968A30B1F760FF24C0EBE7F3E090E076
:1014F00080E0448D411118C0E091DB03F091DC03E2
:10150000E20FF31F408156E0589FF001599FF00D04
:101510001124E558FC4F448F368F258F10A2178E6B
:1015200061E00E94A90405C0019636968A309105B3
:1015300001F7E394B8CFF394A8CFF12CF80181A17F
:101540008111F82E0A5F1F4F0C171D07B9F70E9473
:101550009D046093D7037093D8038093D90390932D
:10156000DA03FF2089F080919C03882369F0809141
:101570009A0390919B03019739F46091970361114D
:1015800006C00E9410035CCE1092E703FACFC09110
:101590004B02D0914C02FE01ED5EFD4F808186171B
:1015A00019F081E080934A028DE492E00E94A30248
:1015B0002196D0934C02C0934B02E3CF80914A0214
:1015C0008823E1F1C0914702D0914802C230D10591
:1015D0005CF561E089E00E94D40310924C02109205
:1015E0004B0210924A022196D0934802C0934702C0
:1015F0006AE08DE492E00E94A30242E050E065E3DD
:1016000072E08DE492E00E940D0260ED77E080E0F0
:1016100090E00E946B0460E089E00E94D40360E0E7
:1016200084E00E94D403ADCF0E949D04A2019101E9
:101630000E949F0B622F617085E0F3CF8091490279
:10164000811144C01092460210924502C091450299
:10165000D0914602CA35D1057CF4CE010E946E01BC
:1016600062E370E080E090E00E946B042196D093EA
:101670004602C0934502EACF68EE73E080E090E056
:101680000E946B042AE530E0309346022093450225
:10169000C0914502D0914602D7FD0FC0CE010E94F5
:1016A0006E0162E370E080E090E00E946B0421979D
:1016B000D0934602C0934502EBCF68EE73E080E022
:1016C00090E00E946B0481E08093490210924802EE
:1016D0001092470256CF617024CF052E97FB1EF45F
:1016E00000940E94840B57FD07D00E949F0B07FCBB
:1016F00003D04EF40C94840B509540953095219571
:101700003F4F4F4F5F4F089590958095709561952D
:101710007F4F8F4F9F4F08950E94C10BA59F900D43
:10172000B49F900DA49F800D911D11240895B7FFC3
:101730000C948C0B0E948C0B821B930B0895A1E2DE
:101740001A2EAA1BBB1BFD010DC0AA1FBB1FEE1F3B
:10175000FF1FA217B307E407F50720F0A21BB30B86
:10176000E40BF50B661F771F881F991F1A9469F702
:1017700060957095809590959B01AC01BD01CF015E
:101780000895A29FB001B39FC001A39F700D811D5A
:101790001124911DB29F700D811D1124911D08957A
:1017A0000E94D70B6894B1110C94660C08950E94A6
:1017B0004B0C88F09F5798F0B92F9927B751B0F08C
:1017C000E1F0660F771F881F991F1AF0BA95C9F7C5
:1017D00014C0B13091F00E94650CB1E008950C94F2
:1017E000650C672F782F8827B85F39F0B93FCCF3A5
:1017F000869577956795B395D9F73EF49095809542
:10180000709561957F4F8F4F9F4F0895E89409C061
:1018100097FB3EF490958095709561957F4F8F4F23
:101820009F4F9923A9F0F92F96E9BB279395F69539
:10183000879577956795B795F111F8CFFAF4BB0FB7
:1018400011F460FF1BC06F5F7F4F8F4F9F4F16C01B
:10185000882311F096E911C0772321F09EE8872FA5
:10186000762F05C0662371F096E8862F70E060E061
:101870002AF09A95660F771F881FDAF7880F9695DA
:10188000879597F9089557FD9058440F551F59F0C3
:101890005F3F71F04795880F97FB991F61F09F3F5D
:1018A00079F087950895121613061406551FF2CF86
:1018B0004695F1DF08C0161617061806991FF1CFD6
:1018C00086957105610508940895E894BB276627FD
:1018D0007727CB0197F908950E947F0C0C94F00CA8
:1018E0000E94E20C38F00E94E90C20F0952311F0E0
:1018F0000C94D90C0C94DF0C11240C94660C0E94EF
:10190000430C70F3959FC1F3950F50E0551F629FF4
:10191000F001729FBB27F00DB11D639FAA27F00D48
:10192000B11DAA1F649F6627B00DA11D661F829F6F
:101930002227B00DA11D621F739FB00DA11D621F54
:10194000839FA00D611D221F749F3327A00D611D71
:10195000231F849F600D211D822F762F6A2F112453
:101960009F5750409AF0F1F088234AF0EE0FFF1F86
:10197000BB1F661F771F881F91505040A9F79E3FDD
:10198000510580F00C94D90C0C94660C5F3FE4F385
:10199000983ED4F3869577956795B795F795E79533
:1019A0009F5FC1F7FE2B880F911D9695879597F93C
:1019B000089597F99F6780E870E060E008959FEFD1
:1019C00080EC089500240A941616170618060906D6
:1019D000089500240A9412161306140605060895A5
:1019E000092E0394000C11F4882352F0BB0F40F42D
:1019F000BF2B11F460FF04C06F5F7F4F8F4F9F4F6D
:101A00000895991B79E004C0991F961708F0961B5A
:101A1000881F7A95C9F780950895EE0FFF1F881FDC
:0E1A20008BBF0790F691E02D1994F894FFCF3C
:101A2E0031333517191B1D313233343536373839CA
:101A3E002A302332303231313100000000A3020D42
:101A4E00023A02F0026B0249025D020000000042FF
:081A5E00040204D1030D0A008B
:00000001FF
